{
  "contractName": "SocialNetwork",
  "abi": [
    {
      "inputs": [],
      "stateMutability": "nonpayable",
      "type": "constructor"
    },
    {
      "anonymous": false,
      "inputs": [
        {
          "indexed": false,
          "internalType": "uint256",
          "name": "_userId",
          "type": "uint256"
        },
        {
          "components": [
            {
              "internalType": "uint256",
              "name": "id",
              "type": "uint256"
            },
            {
              "internalType": "string",
              "name": "image",
              "type": "string"
            },
            {
              "internalType": "string",
              "name": "username",
              "type": "string"
            },
            {
              "internalType": "string",
              "name": "description",
              "type": "string"
            },
            {
              "internalType": "address payable",
              "name": "account",
              "type": "address"
            },
            {
              "internalType": "uint256",
              "name": "createDate",
              "type": "uint256"
            }
          ],
          "indexed": false,
          "internalType": "struct SocialNetwork.User",
          "name": "_user",
          "type": "tuple"
        }
      ],
      "name": "NewFollowed",
      "type": "event"
    },
    {
      "anonymous": false,
      "inputs": [
        {
          "indexed": false,
          "internalType": "uint256",
          "name": "id",
          "type": "uint256"
        },
        {
          "indexed": false,
          "internalType": "uint256",
          "name": "postId",
          "type": "uint256"
        },
        {
          "indexed": false,
          "internalType": "string",
          "name": "comment",
          "type": "string"
        },
        {
          "components": [
            {
              "internalType": "uint256",
              "name": "id",
              "type": "uint256"
            },
            {
              "internalType": "string",
              "name": "image",
              "type": "string"
            },
            {
              "internalType": "string",
              "name": "username",
              "type": "string"
            },
            {
              "internalType": "string",
              "name": "description",
              "type": "string"
            },
            {
              "internalType": "address payable",
              "name": "account",
              "type": "address"
            },
            {
              "internalType": "uint256",
              "name": "createDate",
              "type": "uint256"
            }
          ],
          "indexed": false,
          "internalType": "struct SocialNetwork.User",
          "name": "user",
          "type": "tuple"
        },
        {
          "indexed": false,
          "internalType": "uint256",
          "name": "commentDate",
          "type": "uint256"
        }
      ],
      "name": "PostCommented",
      "type": "event"
    },
    {
      "anonymous": false,
      "inputs": [
        {
          "indexed": false,
          "internalType": "uint256",
          "name": "id",
          "type": "uint256"
        },
        {
          "indexed": false,
          "internalType": "string",
          "name": "description",
          "type": "string"
        },
        {
          "components": [
            {
              "internalType": "uint256",
              "name": "id",
              "type": "uint256"
            },
            {
              "internalType": "string",
              "name": "image",
              "type": "string"
            },
            {
              "internalType": "string",
              "name": "username",
              "type": "string"
            },
            {
              "internalType": "string",
              "name": "description",
              "type": "string"
            },
            {
              "internalType": "address payable",
              "name": "account",
              "type": "address"
            },
            {
              "internalType": "uint256",
              "name": "createDate",
              "type": "uint256"
            }
          ],
          "indexed": false,
          "internalType": "struct SocialNetwork.User",
          "name": "author",
          "type": "tuple"
        },
        {
          "indexed": false,
          "internalType": "uint256",
          "name": "postDate",
          "type": "uint256"
        }
      ],
      "name": "PostCreated",
      "type": "event"
    },
    {
      "anonymous": false,
      "inputs": [
        {
          "indexed": false,
          "internalType": "uint256",
          "name": "imageId",
          "type": "uint256"
        },
        {
          "components": [
            {
              "internalType": "uint256",
              "name": "id",
              "type": "uint256"
            },
            {
              "internalType": "string",
              "name": "image",
              "type": "string"
            },
            {
              "internalType": "string",
              "name": "username",
              "type": "string"
            },
            {
              "internalType": "string",
              "name": "description",
              "type": "string"
            },
            {
              "internalType": "address payable",
              "name": "account",
              "type": "address"
            },
            {
              "internalType": "uint256",
              "name": "createDate",
              "type": "uint256"
            }
          ],
          "indexed": false,
          "internalType": "struct SocialNetwork.User",
          "name": "user",
          "type": "tuple"
        }
      ],
      "name": "PostLiked",
      "type": "event"
    },
    {
      "anonymous": false,
      "inputs": [
        {
          "indexed": false,
          "internalType": "uint256",
          "name": "imageId",
          "type": "uint256"
        },
        {
          "components": [
            {
              "internalType": "uint256",
              "name": "id",
              "type": "uint256"
            },
            {
              "internalType": "string",
              "name": "image",
              "type": "string"
            },
            {
              "internalType": "string",
              "name": "username",
              "type": "string"
            },
            {
              "internalType": "string",
              "name": "description",
              "type": "string"
            },
            {
              "internalType": "address payable",
              "name": "account",
              "type": "address"
            },
            {
              "internalType": "uint256",
              "name": "createDate",
              "type": "uint256"
            }
          ],
          "indexed": false,
          "internalType": "struct SocialNetwork.User",
          "name": "user",
          "type": "tuple"
        }
      ],
      "name": "PostUnLiked",
      "type": "event"
    },
    {
      "anonymous": false,
      "inputs": [
        {
          "indexed": false,
          "internalType": "uint256",
          "name": "_userId",
          "type": "uint256"
        },
        {
          "indexed": false,
          "internalType": "string",
          "name": "hash",
          "type": "string"
        },
        {
          "indexed": false,
          "internalType": "string",
          "name": "username",
          "type": "string"
        },
        {
          "indexed": false,
          "internalType": "string",
          "name": "description",
          "type": "string"
        },
        {
          "indexed": false,
          "internalType": "address payable",
          "name": "author",
          "type": "address"
        },
        {
          "indexed": false,
          "internalType": "uint256",
          "name": "createDate",
          "type": "uint256"
        }
      ],
      "name": "UserCreated",
      "type": "event"
    },
    {
      "anonymous": false,
      "inputs": [
        {
          "indexed": false,
          "internalType": "uint256",
          "name": "_userId",
          "type": "uint256"
        },
        {
          "indexed": false,
          "internalType": "string",
          "name": "hash",
          "type": "string"
        },
        {
          "indexed": false,
          "internalType": "string",
          "name": "username",
          "type": "string"
        },
        {
          "indexed": false,
          "internalType": "string",
          "name": "description",
          "type": "string"
        },
        {
          "indexed": false,
          "internalType": "address payable",
          "name": "author",
          "type": "address"
        }
      ],
      "name": "UserUpdate",
      "type": "event"
    },
    {
      "inputs": [],
      "name": "name",
      "outputs": [
        {
          "internalType": "string",
          "name": "",
          "type": "string"
        }
      ],
      "stateMutability": "view",
      "type": "function",
      "constant": true
    },
    {
      "inputs": [
        {
          "internalType": "string",
          "name": "_username",
          "type": "string"
        },
        {
          "internalType": "string",
          "name": "_profileImg",
          "type": "string"
        },
        {
          "internalType": "string",
          "name": "_description",
          "type": "string"
        },
        {
          "internalType": "address",
          "name": "_account",
          "type": "address"
        }
      ],
      "name": "createUser",
      "outputs": [],
      "stateMutability": "nonpayable",
      "type": "function"
    },
    {
      "inputs": [
        {
          "internalType": "string",
          "name": "_profileImgHash",
          "type": "string"
        },
        {
          "internalType": "string",
          "name": "_username",
          "type": "string"
        },
        {
          "internalType": "string",
          "name": "_description",
          "type": "string"
        },
        {
          "components": [
            {
              "internalType": "uint256",
              "name": "id",
              "type": "uint256"
            },
            {
              "internalType": "string",
              "name": "image",
              "type": "string"
            },
            {
              "internalType": "string",
              "name": "username",
              "type": "string"
            },
            {
              "internalType": "string",
              "name": "description",
              "type": "string"
            },
            {
              "internalType": "address payable",
              "name": "account",
              "type": "address"
            },
            {
              "internalType": "uint256",
              "name": "createDate",
              "type": "uint256"
            }
          ],
          "internalType": "struct SocialNetwork.User",
          "name": "author",
          "type": "tuple"
        }
      ],
      "name": "userUpdate",
      "outputs": [],
      "stateMutability": "nonpayable",
      "type": "function"
    },
    {
      "inputs": [
        {
          "internalType": "address",
          "name": "_account",
          "type": "address"
        }
      ],
      "name": "deleteUser",
      "outputs": [],
      "stateMutability": "nonpayable",
      "type": "function"
    },
    {
      "inputs": [],
      "name": "getUsers",
      "outputs": [
        {
          "components": [
            {
              "internalType": "uint256",
              "name": "id",
              "type": "uint256"
            },
            {
              "internalType": "string",
              "name": "image",
              "type": "string"
            },
            {
              "internalType": "string",
              "name": "username",
              "type": "string"
            },
            {
              "internalType": "string",
              "name": "description",
              "type": "string"
            },
            {
              "internalType": "address payable",
              "name": "account",
              "type": "address"
            },
            {
              "internalType": "uint256",
              "name": "createDate",
              "type": "uint256"
            }
          ],
          "internalType": "struct SocialNetwork.User[]",
          "name": "",
          "type": "tuple[]"
        }
      ],
      "stateMutability": "view",
      "type": "function",
      "constant": true
    },
    {
      "inputs": [
        {
          "internalType": "address",
          "name": "userAccount",
          "type": "address"
        }
      ],
      "name": "getUser",
      "outputs": [
        {
          "components": [
            {
              "internalType": "uint256",
              "name": "id",
              "type": "uint256"
            },
            {
              "internalType": "string",
              "name": "image",
              "type": "string"
            },
            {
              "internalType": "string",
              "name": "username",
              "type": "string"
            },
            {
              "internalType": "string",
              "name": "description",
              "type": "string"
            },
            {
              "internalType": "address payable",
              "name": "account",
              "type": "address"
            },
            {
              "internalType": "uint256",
              "name": "createDate",
              "type": "uint256"
            }
          ],
          "internalType": "struct SocialNetwork.User",
          "name": "",
          "type": "tuple"
        }
      ],
      "stateMutability": "view",
      "type": "function",
      "constant": true
    },
    {
      "inputs": [
        {
          "internalType": "string",
          "name": "_username",
          "type": "string"
        }
      ],
      "name": "getUserByUserName",
      "outputs": [
        {
          "components": [
            {
              "internalType": "uint256",
              "name": "id",
              "type": "uint256"
            },
            {
              "internalType": "string",
              "name": "image",
              "type": "string"
            },
            {
              "internalType": "string",
              "name": "username",
              "type": "string"
            },
            {
              "internalType": "string",
              "name": "description",
              "type": "string"
            },
            {
              "internalType": "address payable",
              "name": "account",
              "type": "address"
            },
            {
              "internalType": "uint256",
              "name": "createDate",
              "type": "uint256"
            }
          ],
          "internalType": "struct SocialNetwork.User",
          "name": "",
          "type": "tuple"
        }
      ],
      "stateMutability": "view",
      "type": "function",
      "constant": true
    },
    {
      "inputs": [
        {
          "components": [
            {
              "internalType": "uint256",
              "name": "postId",
              "type": "uint256"
            },
            {
              "internalType": "string",
              "name": "hash",
              "type": "string"
            },
            {
              "internalType": "string",
              "name": "fileType",
              "type": "string"
            }
          ],
          "internalType": "struct SocialNetwork.File[]",
          "name": "_files",
          "type": "tuple[]"
        },
        {
          "internalType": "string",
          "name": "_description",
          "type": "string"
        },
        {
          "components": [
            {
              "internalType": "uint256",
              "name": "id",
              "type": "uint256"
            },
            {
              "internalType": "string",
              "name": "image",
              "type": "string"
            },
            {
              "internalType": "string",
              "name": "username",
              "type": "string"
            },
            {
              "internalType": "string",
              "name": "description",
              "type": "string"
            },
            {
              "internalType": "address payable",
              "name": "account",
              "type": "address"
            },
            {
              "internalType": "uint256",
              "name": "createDate",
              "type": "uint256"
            }
          ],
          "internalType": "struct SocialNetwork.User",
          "name": "_user",
          "type": "tuple"
        }
      ],
      "name": "createPost",
      "outputs": [],
      "stateMutability": "payable",
      "type": "function",
      "payable": true
    },
    {
      "inputs": [
        {
          "internalType": "uint256",
          "name": "id",
          "type": "uint256"
        }
      ],
      "name": "deletePost",
      "outputs": [],
      "stateMutability": "nonpayable",
      "type": "function"
    },
    {
      "inputs": [
        {
          "internalType": "uint256",
          "name": "_id",
          "type": "uint256"
        },
        {
          "internalType": "string",
          "name": "_comment",
          "type": "string"
        },
        {
          "components": [
            {
              "internalType": "uint256",
              "name": "id",
              "type": "uint256"
            },
            {
              "internalType": "string",
              "name": "image",
              "type": "string"
            },
            {
              "internalType": "string",
              "name": "username",
              "type": "string"
            },
            {
              "internalType": "string",
              "name": "description",
              "type": "string"
            },
            {
              "internalType": "address payable",
              "name": "account",
              "type": "address"
            },
            {
              "internalType": "uint256",
              "name": "createDate",
              "type": "uint256"
            }
          ],
          "internalType": "struct SocialNetwork.User",
          "name": "user",
          "type": "tuple"
        }
      ],
      "name": "commentPost",
      "outputs": [],
      "stateMutability": "payable",
      "type": "function",
      "payable": true
    },
    {
      "inputs": [
        {
          "internalType": "uint256",
          "name": "id",
          "type": "uint256"
        }
      ],
      "name": "deleteComment",
      "outputs": [],
      "stateMutability": "nonpayable",
      "type": "function"
    },
    {
      "inputs": [
        {
          "internalType": "uint256",
          "name": "postId",
          "type": "uint256"
        }
      ],
      "name": "getPostComments",
      "outputs": [
        {
          "components": [
            {
              "components": [
                {
                  "internalType": "uint256",
                  "name": "id",
                  "type": "uint256"
                },
                {
                  "internalType": "string",
                  "name": "image",
                  "type": "string"
                },
                {
                  "internalType": "string",
                  "name": "username",
                  "type": "string"
                },
                {
                  "internalType": "string",
                  "name": "description",
                  "type": "string"
                },
                {
                  "internalType": "address payable",
                  "name": "account",
                  "type": "address"
                },
                {
                  "internalType": "uint256",
                  "name": "createDate",
                  "type": "uint256"
                }
              ],
              "internalType": "struct SocialNetwork.User",
              "name": "user",
              "type": "tuple"
            },
            {
              "internalType": "string",
              "name": "comment",
              "type": "string"
            },
            {
              "internalType": "uint256",
              "name": "postId",
              "type": "uint256"
            },
            {
              "internalType": "uint256",
              "name": "id",
              "type": "uint256"
            },
            {
              "internalType": "uint256",
              "name": "commentDate",
              "type": "uint256"
            }
          ],
          "internalType": "struct SocialNetwork.Comment[]",
          "name": "",
          "type": "tuple[]"
        }
      ],
      "stateMutability": "view",
      "type": "function",
      "constant": true
    },
    {
      "inputs": [
        {
          "internalType": "uint256",
          "name": "postId",
          "type": "uint256"
        },
        {
          "components": [
            {
              "internalType": "uint256",
              "name": "id",
              "type": "uint256"
            },
            {
              "internalType": "string",
              "name": "image",
              "type": "string"
            },
            {
              "internalType": "string",
              "name": "username",
              "type": "string"
            },
            {
              "internalType": "string",
              "name": "description",
              "type": "string"
            },
            {
              "internalType": "address payable",
              "name": "account",
              "type": "address"
            },
            {
              "internalType": "uint256",
              "name": "createDate",
              "type": "uint256"
            }
          ],
          "internalType": "struct SocialNetwork.User",
          "name": "user",
          "type": "tuple"
        }
      ],
      "name": "setLike",
      "outputs": [],
      "stateMutability": "payable",
      "type": "function",
      "payable": true
    },
    {
      "inputs": [
        {
          "internalType": "uint256",
          "name": "postId",
          "type": "uint256"
        },
        {
          "components": [
            {
              "internalType": "uint256",
              "name": "id",
              "type": "uint256"
            },
            {
              "internalType": "string",
              "name": "image",
              "type": "string"
            },
            {
              "internalType": "string",
              "name": "username",
              "type": "string"
            },
            {
              "internalType": "string",
              "name": "description",
              "type": "string"
            },
            {
              "internalType": "address payable",
              "name": "account",
              "type": "address"
            },
            {
              "internalType": "uint256",
              "name": "createDate",
              "type": "uint256"
            }
          ],
          "internalType": "struct SocialNetwork.User",
          "name": "user",
          "type": "tuple"
        }
      ],
      "name": "unLike",
      "outputs": [],
      "stateMutability": "nonpayable",
      "type": "function"
    },
    {
      "inputs": [],
      "name": "getPosts",
      "outputs": [
        {
          "components": [
            {
              "components": [
                {
                  "internalType": "uint256",
                  "name": "id",
                  "type": "uint256"
                },
                {
                  "internalType": "string",
                  "name": "description",
                  "type": "string"
                },
                {
                  "components": [
                    {
                      "internalType": "uint256",
                      "name": "id",
                      "type": "uint256"
                    },
                    {
                      "internalType": "string",
                      "name": "image",
                      "type": "string"
                    },
                    {
                      "internalType": "string",
                      "name": "username",
                      "type": "string"
                    },
                    {
                      "internalType": "string",
                      "name": "description",
                      "type": "string"
                    },
                    {
                      "internalType": "address payable",
                      "name": "account",
                      "type": "address"
                    },
                    {
                      "internalType": "uint256",
                      "name": "createDate",
                      "type": "uint256"
                    }
                  ],
                  "internalType": "struct SocialNetwork.User",
                  "name": "author",
                  "type": "tuple"
                },
                {
                  "internalType": "uint256",
                  "name": "postDate",
                  "type": "uint256"
                }
              ],
              "internalType": "struct SocialNetwork.Post",
              "name": "post",
              "type": "tuple"
            },
            {
              "components": [
                {
                  "components": [
                    {
                      "internalType": "uint256",
                      "name": "id",
                      "type": "uint256"
                    },
                    {
                      "internalType": "string",
                      "name": "image",
                      "type": "string"
                    },
                    {
                      "internalType": "string",
                      "name": "username",
                      "type": "string"
                    },
                    {
                      "internalType": "string",
                      "name": "description",
                      "type": "string"
                    },
                    {
                      "internalType": "address payable",
                      "name": "account",
                      "type": "address"
                    },
                    {
                      "internalType": "uint256",
                      "name": "createDate",
                      "type": "uint256"
                    }
                  ],
                  "internalType": "struct SocialNetwork.User",
                  "name": "user",
                  "type": "tuple"
                },
                {
                  "internalType": "string",
                  "name": "comment",
                  "type": "string"
                },
                {
                  "internalType": "uint256",
                  "name": "postId",
                  "type": "uint256"
                },
                {
                  "internalType": "uint256",
                  "name": "id",
                  "type": "uint256"
                },
                {
                  "internalType": "uint256",
                  "name": "commentDate",
                  "type": "uint256"
                }
              ],
              "internalType": "struct SocialNetwork.Comment[]",
              "name": "comments",
              "type": "tuple[]"
            },
            {
              "components": [
                {
                  "internalType": "uint256",
                  "name": "postId",
                  "type": "uint256"
                },
                {
                  "components": [
                    {
                      "internalType": "uint256",
                      "name": "id",
                      "type": "uint256"
                    },
                    {
                      "internalType": "string",
                      "name": "image",
                      "type": "string"
                    },
                    {
                      "internalType": "string",
                      "name": "username",
                      "type": "string"
                    },
                    {
                      "internalType": "string",
                      "name": "description",
                      "type": "string"
                    },
                    {
                      "internalType": "address payable",
                      "name": "account",
                      "type": "address"
                    },
                    {
                      "internalType": "uint256",
                      "name": "createDate",
                      "type": "uint256"
                    }
                  ],
                  "internalType": "struct SocialNetwork.User",
                  "name": "user",
                  "type": "tuple"
                }
              ],
              "internalType": "struct SocialNetwork.Like[]",
              "name": "likes",
              "type": "tuple[]"
            },
            {
              "components": [
                {
                  "internalType": "uint256",
                  "name": "postId",
                  "type": "uint256"
                },
                {
                  "internalType": "string",
                  "name": "hash",
                  "type": "string"
                },
                {
                  "internalType": "string",
                  "name": "fileType",
                  "type": "string"
                }
              ],
              "internalType": "struct SocialNetwork.File[]",
              "name": "files",
              "type": "tuple[]"
            }
          ],
          "internalType": "struct SocialNetwork.AllPostInfo[]",
          "name": "",
          "type": "tuple[]"
        }
      ],
      "stateMutability": "view",
      "type": "function",
      "constant": true
    },
    {
      "inputs": [
        {
          "internalType": "uint256",
          "name": "postId",
          "type": "uint256"
        }
      ],
      "name": "getPost",
      "outputs": [
        {
          "components": [
            {
              "components": [
                {
                  "internalType": "uint256",
                  "name": "id",
                  "type": "uint256"
                },
                {
                  "internalType": "string",
                  "name": "description",
                  "type": "string"
                },
                {
                  "components": [
                    {
                      "internalType": "uint256",
                      "name": "id",
                      "type": "uint256"
                    },
                    {
                      "internalType": "string",
                      "name": "image",
                      "type": "string"
                    },
                    {
                      "internalType": "string",
                      "name": "username",
                      "type": "string"
                    },
                    {
                      "internalType": "string",
                      "name": "description",
                      "type": "string"
                    },
                    {
                      "internalType": "address payable",
                      "name": "account",
                      "type": "address"
                    },
                    {
                      "internalType": "uint256",
                      "name": "createDate",
                      "type": "uint256"
                    }
                  ],
                  "internalType": "struct SocialNetwork.User",
                  "name": "author",
                  "type": "tuple"
                },
                {
                  "internalType": "uint256",
                  "name": "postDate",
                  "type": "uint256"
                }
              ],
              "internalType": "struct SocialNetwork.Post",
              "name": "post",
              "type": "tuple"
            },
            {
              "components": [
                {
                  "components": [
                    {
                      "internalType": "uint256",
                      "name": "id",
                      "type": "uint256"
                    },
                    {
                      "internalType": "string",
                      "name": "image",
                      "type": "string"
                    },
                    {
                      "internalType": "string",
                      "name": "username",
                      "type": "string"
                    },
                    {
                      "internalType": "string",
                      "name": "description",
                      "type": "string"
                    },
                    {
                      "internalType": "address payable",
                      "name": "account",
                      "type": "address"
                    },
                    {
                      "internalType": "uint256",
                      "name": "createDate",
                      "type": "uint256"
                    }
                  ],
                  "internalType": "struct SocialNetwork.User",
                  "name": "user",
                  "type": "tuple"
                },
                {
                  "internalType": "string",
                  "name": "comment",
                  "type": "string"
                },
                {
                  "internalType": "uint256",
                  "name": "postId",
                  "type": "uint256"
                },
                {
                  "internalType": "uint256",
                  "name": "id",
                  "type": "uint256"
                },
                {
                  "internalType": "uint256",
                  "name": "commentDate",
                  "type": "uint256"
                }
              ],
              "internalType": "struct SocialNetwork.Comment[]",
              "name": "comments",
              "type": "tuple[]"
            },
            {
              "components": [
                {
                  "internalType": "uint256",
                  "name": "postId",
                  "type": "uint256"
                },
                {
                  "components": [
                    {
                      "internalType": "uint256",
                      "name": "id",
                      "type": "uint256"
                    },
                    {
                      "internalType": "string",
                      "name": "image",
                      "type": "string"
                    },
                    {
                      "internalType": "string",
                      "name": "username",
                      "type": "string"
                    },
                    {
                      "internalType": "string",
                      "name": "description",
                      "type": "string"
                    },
                    {
                      "internalType": "address payable",
                      "name": "account",
                      "type": "address"
                    },
                    {
                      "internalType": "uint256",
                      "name": "createDate",
                      "type": "uint256"
                    }
                  ],
                  "internalType": "struct SocialNetwork.User",
                  "name": "user",
                  "type": "tuple"
                }
              ],
              "internalType": "struct SocialNetwork.Like[]",
              "name": "likes",
              "type": "tuple[]"
            },
            {
              "components": [
                {
                  "internalType": "uint256",
                  "name": "postId",
                  "type": "uint256"
                },
                {
                  "internalType": "string",
                  "name": "hash",
                  "type": "string"
                },
                {
                  "internalType": "string",
                  "name": "fileType",
                  "type": "string"
                }
              ],
              "internalType": "struct SocialNetwork.File[]",
              "name": "files",
              "type": "tuple[]"
            }
          ],
          "internalType": "struct SocialNetwork.AllPostInfo",
          "name": "",
          "type": "tuple"
        }
      ],
      "stateMutability": "view",
      "type": "function",
      "constant": true
    },
    {
      "inputs": [
        {
          "internalType": "address",
          "name": "_account",
          "type": "address"
        }
      ],
      "name": "getPostsByUserAddress",
      "outputs": [
        {
          "components": [
            {
              "components": [
                {
                  "internalType": "uint256",
                  "name": "id",
                  "type": "uint256"
                },
                {
                  "internalType": "string",
                  "name": "description",
                  "type": "string"
                },
                {
                  "components": [
                    {
                      "internalType": "uint256",
                      "name": "id",
                      "type": "uint256"
                    },
                    {
                      "internalType": "string",
                      "name": "image",
                      "type": "string"
                    },
                    {
                      "internalType": "string",
                      "name": "username",
                      "type": "string"
                    },
                    {
                      "internalType": "string",
                      "name": "description",
                      "type": "string"
                    },
                    {
                      "internalType": "address payable",
                      "name": "account",
                      "type": "address"
                    },
                    {
                      "internalType": "uint256",
                      "name": "createDate",
                      "type": "uint256"
                    }
                  ],
                  "internalType": "struct SocialNetwork.User",
                  "name": "author",
                  "type": "tuple"
                },
                {
                  "internalType": "uint256",
                  "name": "postDate",
                  "type": "uint256"
                }
              ],
              "internalType": "struct SocialNetwork.Post",
              "name": "post",
              "type": "tuple"
            },
            {
              "components": [
                {
                  "components": [
                    {
                      "internalType": "uint256",
                      "name": "id",
                      "type": "uint256"
                    },
                    {
                      "internalType": "string",
                      "name": "image",
                      "type": "string"
                    },
                    {
                      "internalType": "string",
                      "name": "username",
                      "type": "string"
                    },
                    {
                      "internalType": "string",
                      "name": "description",
                      "type": "string"
                    },
                    {
                      "internalType": "address payable",
                      "name": "account",
                      "type": "address"
                    },
                    {
                      "internalType": "uint256",
                      "name": "createDate",
                      "type": "uint256"
                    }
                  ],
                  "internalType": "struct SocialNetwork.User",
                  "name": "user",
                  "type": "tuple"
                },
                {
                  "internalType": "string",
                  "name": "comment",
                  "type": "string"
                },
                {
                  "internalType": "uint256",
                  "name": "postId",
                  "type": "uint256"
                },
                {
                  "internalType": "uint256",
                  "name": "id",
                  "type": "uint256"
                },
                {
                  "internalType": "uint256",
                  "name": "commentDate",
                  "type": "uint256"
                }
              ],
              "internalType": "struct SocialNetwork.Comment[]",
              "name": "comments",
              "type": "tuple[]"
            },
            {
              "components": [
                {
                  "internalType": "uint256",
                  "name": "postId",
                  "type": "uint256"
                },
                {
                  "components": [
                    {
                      "internalType": "uint256",
                      "name": "id",
                      "type": "uint256"
                    },
                    {
                      "internalType": "string",
                      "name": "image",
                      "type": "string"
                    },
                    {
                      "internalType": "string",
                      "name": "username",
                      "type": "string"
                    },
                    {
                      "internalType": "string",
                      "name": "description",
                      "type": "string"
                    },
                    {
                      "internalType": "address payable",
                      "name": "account",
                      "type": "address"
                    },
                    {
                      "internalType": "uint256",
                      "name": "createDate",
                      "type": "uint256"
                    }
                  ],
                  "internalType": "struct SocialNetwork.User",
                  "name": "user",
                  "type": "tuple"
                }
              ],
              "internalType": "struct SocialNetwork.Like[]",
              "name": "likes",
              "type": "tuple[]"
            },
            {
              "components": [
                {
                  "internalType": "uint256",
                  "name": "postId",
                  "type": "uint256"
                },
                {
                  "internalType": "string",
                  "name": "hash",
                  "type": "string"
                },
                {
                  "internalType": "string",
                  "name": "fileType",
                  "type": "string"
                }
              ],
              "internalType": "struct SocialNetwork.File[]",
              "name": "files",
              "type": "tuple[]"
            }
          ],
          "internalType": "struct SocialNetwork.AllPostInfo[]",
          "name": "",
          "type": "tuple[]"
        }
      ],
      "stateMutability": "view",
      "type": "function",
      "constant": true
    },
    {
      "inputs": [
        {
          "internalType": "uint256",
          "name": "postId",
          "type": "uint256"
        }
      ],
      "name": "getPostLikes",
      "outputs": [
        {
          "components": [
            {
              "internalType": "uint256",
              "name": "postId",
              "type": "uint256"
            },
            {
              "components": [
                {
                  "internalType": "uint256",
                  "name": "id",
                  "type": "uint256"
                },
                {
                  "internalType": "string",
                  "name": "image",
                  "type": "string"
                },
                {
                  "internalType": "string",
                  "name": "username",
                  "type": "string"
                },
                {
                  "internalType": "string",
                  "name": "description",
                  "type": "string"
                },
                {
                  "internalType": "address payable",
                  "name": "account",
                  "type": "address"
                },
                {
                  "internalType": "uint256",
                  "name": "createDate",
                  "type": "uint256"
                }
              ],
              "internalType": "struct SocialNetwork.User",
              "name": "user",
              "type": "tuple"
            }
          ],
          "internalType": "struct SocialNetwork.Like[]",
          "name": "",
          "type": "tuple[]"
        }
      ],
      "stateMutability": "view",
      "type": "function",
      "constant": true
    },
    {
      "inputs": [
        {
          "internalType": "uint256",
          "name": "_postId",
          "type": "uint256"
        }
      ],
      "name": "getPostFiles",
      "outputs": [
        {
          "components": [
            {
              "internalType": "uint256",
              "name": "postId",
              "type": "uint256"
            },
            {
              "internalType": "string",
              "name": "hash",
              "type": "string"
            },
            {
              "internalType": "string",
              "name": "fileType",
              "type": "string"
            }
          ],
          "internalType": "struct SocialNetwork.File[]",
          "name": "",
          "type": "tuple[]"
        }
      ],
      "stateMutability": "view",
      "type": "function",
      "constant": true
    },
    {
      "inputs": [
        {
          "internalType": "uint256",
          "name": "_userId",
          "type": "uint256"
        },
        {
          "components": [
            {
              "internalType": "uint256",
              "name": "id",
              "type": "uint256"
            },
            {
              "internalType": "string",
              "name": "image",
              "type": "string"
            },
            {
              "internalType": "string",
              "name": "username",
              "type": "string"
            },
            {
              "internalType": "string",
              "name": "description",
              "type": "string"
            },
            {
              "internalType": "address payable",
              "name": "account",
              "type": "address"
            },
            {
              "internalType": "uint256",
              "name": "createDate",
              "type": "uint256"
            }
          ],
          "internalType": "struct SocialNetwork.User",
          "name": "user",
          "type": "tuple"
        }
      ],
      "name": "follow",
      "outputs": [],
      "stateMutability": "payable",
      "type": "function",
      "payable": true
    },
    {
      "inputs": [
        {
          "internalType": "uint256",
          "name": "_userId",
          "type": "uint256"
        }
      ],
      "name": "getUserFollowed",
      "outputs": [
        {
          "components": [
            {
              "internalType": "uint256",
              "name": "followerId",
              "type": "uint256"
            },
            {
              "components": [
                {
                  "internalType": "uint256",
                  "name": "id",
                  "type": "uint256"
                },
                {
                  "internalType": "string",
                  "name": "image",
                  "type": "string"
                },
                {
                  "internalType": "string",
                  "name": "username",
                  "type": "string"
                },
                {
                  "internalType": "string",
                  "name": "description",
                  "type": "string"
                },
                {
                  "internalType": "address payable",
                  "name": "account",
                  "type": "address"
                },
                {
                  "internalType": "uint256",
                  "name": "createDate",
                  "type": "uint256"
                }
              ],
              "internalType": "struct SocialNetwork.User",
              "name": "_followed",
              "type": "tuple"
            }
          ],
          "internalType": "struct SocialNetwork.Followed[]",
          "name": "",
          "type": "tuple[]"
        }
      ],
      "stateMutability": "view",
      "type": "function",
      "constant": true
    },
    {
      "inputs": [
        {
          "internalType": "uint256",
          "name": "_userId",
          "type": "uint256"
        }
      ],
      "name": "getFollowedUsersPosts",
      "outputs": [
        {
          "components": [
            {
              "components": [
                {
                  "components": [
                    {
                      "internalType": "uint256",
                      "name": "id",
                      "type": "uint256"
                    },
                    {
                      "internalType": "string",
                      "name": "description",
                      "type": "string"
                    },
                    {
                      "components": [
                        {
                          "internalType": "uint256",
                          "name": "id",
                          "type": "uint256"
                        },
                        {
                          "internalType": "string",
                          "name": "image",
                          "type": "string"
                        },
                        {
                          "internalType": "string",
                          "name": "username",
                          "type": "string"
                        },
                        {
                          "internalType": "string",
                          "name": "description",
                          "type": "string"
                        },
                        {
                          "internalType": "address payable",
                          "name": "account",
                          "type": "address"
                        },
                        {
                          "internalType": "uint256",
                          "name": "createDate",
                          "type": "uint256"
                        }
                      ],
                      "internalType": "struct SocialNetwork.User",
                      "name": "author",
                      "type": "tuple"
                    },
                    {
                      "internalType": "uint256",
                      "name": "postDate",
                      "type": "uint256"
                    }
                  ],
                  "internalType": "struct SocialNetwork.Post",
                  "name": "post",
                  "type": "tuple"
                },
                {
                  "components": [
                    {
                      "components": [
                        {
                          "internalType": "uint256",
                          "name": "id",
                          "type": "uint256"
                        },
                        {
                          "internalType": "string",
                          "name": "image",
                          "type": "string"
                        },
                        {
                          "internalType": "string",
                          "name": "username",
                          "type": "string"
                        },
                        {
                          "internalType": "string",
                          "name": "description",
                          "type": "string"
                        },
                        {
                          "internalType": "address payable",
                          "name": "account",
                          "type": "address"
                        },
                        {
                          "internalType": "uint256",
                          "name": "createDate",
                          "type": "uint256"
                        }
                      ],
                      "internalType": "struct SocialNetwork.User",
                      "name": "user",
                      "type": "tuple"
                    },
                    {
                      "internalType": "string",
                      "name": "comment",
                      "type": "string"
                    },
                    {
                      "internalType": "uint256",
                      "name": "postId",
                      "type": "uint256"
                    },
                    {
                      "internalType": "uint256",
                      "name": "id",
                      "type": "uint256"
                    },
                    {
                      "internalType": "uint256",
                      "name": "commentDate",
                      "type": "uint256"
                    }
                  ],
                  "internalType": "struct SocialNetwork.Comment[]",
                  "name": "comments",
                  "type": "tuple[]"
                },
                {
                  "components": [
                    {
                      "internalType": "uint256",
                      "name": "postId",
                      "type": "uint256"
                    },
                    {
                      "components": [
                        {
                          "internalType": "uint256",
                          "name": "id",
                          "type": "uint256"
                        },
                        {
                          "internalType": "string",
                          "name": "image",
                          "type": "string"
                        },
                        {
                          "internalType": "string",
                          "name": "username",
                          "type": "string"
                        },
                        {
                          "internalType": "string",
                          "name": "description",
                          "type": "string"
                        },
                        {
                          "internalType": "address payable",
                          "name": "account",
                          "type": "address"
                        },
                        {
                          "internalType": "uint256",
                          "name": "createDate",
                          "type": "uint256"
                        }
                      ],
                      "internalType": "struct SocialNetwork.User",
                      "name": "user",
                      "type": "tuple"
                    }
                  ],
                  "internalType": "struct SocialNetwork.Like[]",
                  "name": "likes",
                  "type": "tuple[]"
                },
                {
                  "components": [
                    {
                      "internalType": "uint256",
                      "name": "postId",
                      "type": "uint256"
                    },
                    {
                      "internalType": "string",
                      "name": "hash",
                      "type": "string"
                    },
                    {
                      "internalType": "string",
                      "name": "fileType",
                      "type": "string"
                    }
                  ],
                  "internalType": "struct SocialNetwork.File[]",
                  "name": "files",
                  "type": "tuple[]"
                }
              ],
              "internalType": "struct SocialNetwork.AllPostInfo[]",
              "name": "_followedUsersPosts",
              "type": "tuple[]"
            }
          ],
          "internalType": "struct SocialNetwork.FollowedUserPosts[]",
          "name": "",
          "type": "tuple[]"
        }
      ],
      "stateMutability": "view",
      "type": "function",
      "constant": true
    }
  ],
  "bytecode": "0x60806040526000600155600060025560006003556000600455600060055560006006553480156200002f57600080fd5b506040518060400160405280600d81526020017f536f6369616c4e6574776f726b00000000000000000000000000000000000000815250600090805190602001906200007d92919062000084565b5062000199565b828054620000929062000163565b90600052602060002090601f016020900481019282620000b6576000855562000102565b82601f10620000d157805160ff191683800117855562000102565b8280016001018555821562000102579182015b8281111562000101578251825591602001919060010190620000e4565b5b50905062000111919062000115565b5090565b5b808211156200013057600081600090555060010162000116565b5090565b7f4e487b7100000000000000000000000000000000000000000000000000000000600052602260045260246000fd5b600060028204905060018216806200017c57607f821691505b6020821081141562000193576200019262000134565b5b50919050565b615e4980620001a96000396000f3fe6080604052600436106101345760003560e01c80636f77926b116100ab578063b0b2671d1161006f578063b0b2671d14610419578063b48cb04614610456578063be6c898714610472578063d524ff76146104af578063e96333df146104ec578063f2bfae281461052957610134565b80636f77926b146103455780637d0b1026146103825780637d127424146103ab578063960dde81146103d4578063af7904ee146103fd57610134565b80633f8588d2116100fd5780633f8588d21461021157806340731c241461023a57806341f3004a146102775780635564af85146102a25780635c60f226146102df5780636689858d1461030857610134565b8062ce8e3e1461013957806306fdde0314610164578063094cd5ee1461018f5780630cc8422f146101b85780633276f034146101f5575b600080fd5b34801561014557600080fd5b5061014e610545565b60405161015b9190614417565b60405180910390f35b34801561017057600080fd5b50610179610895565b6040516101869190614483565b60405180910390f35b34801561019b57600080fd5b506101b660048036038101906101b191906144e5565b610923565b005b3480156101c457600080fd5b506101df60048036038101906101da91906144e5565b6109ca565b6040516101ec919061462b565b60405180910390f35b61020f600480360381019061020a9190614a2e565b610c08565b005b34801561021d57600080fd5b5061023860048036038101906102339190614ad5565b610e8d565b005b34801561024657600080fd5b50610261600480360381019061025c91906144e5565b611069565b60405161026e9190614ed7565b60405180910390f35b34801561028357600080fd5b5061028c6113b5565b6040516102999190615033565b60405180910390f35b3480156102ae57600080fd5b506102c960048036038101906102c49190615093565b611804565b6040516102d69190615033565b60405180910390f35b3480156102eb57600080fd5b5061030660048036038101906103019190615093565b611ccf565b005b34801561031457600080fd5b5061032f600480360381019061032a91906144e5565b611ecb565b60405161033c9190615232565b60405180910390f35b34801561035157600080fd5b5061036c60048036038101906103679190615093565b611fcc565b60405161037991906152eb565b60405180910390f35b34801561038e57600080fd5b506103a960048036038101906103a491906144e5565b612245565b005b3480156103b757600080fd5b506103d260048036038101906103cd919061530d565b6122f4565b005b3480156103e057600080fd5b506103fb60048036038101906103f691906153e4565b61260e565b005b61041760048036038101906104129190614ad5565b612a4c565b005b34801561042557600080fd5b50610440600480360381019061043b91906144e5565b612c5d565b60405161044d9190615525565b60405180910390f35b610470600480360381019061046b9190614ad5565b612f94565b005b34801561047e57600080fd5b5061049960048036038101906104949190615547565b6131a5565b6040516104a691906152eb565b60405180910390f35b3480156104bb57600080fd5b506104d660048036038101906104d191906144e5565b6135cf565b6040516104e39190615616565b60405180910390f35b3480156104f857600080fd5b50610513600480360381019061050e91906144e5565b6139c7565b6040516105209190615737565b60405180910390f35b610543600480360381019061053e9190615759565b613d18565b005b6060600060078054905067ffffffffffffffff81111561056857610567614652565b5b6040519080825280602002602001820160405280156105a157816020015b61058e613f97565b8152602001906001900390816105865790505b50905060005b60078054905081101561088d5760096000600783815481106105cc576105cb6157e4565b5b9060005260206000200160009054906101000a900473ffffffffffffffffffffffffffffffffffffffff1673ffffffffffffffffffffffffffffffffffffffff1673ffffffffffffffffffffffffffffffffffffffff1681526020019081526020016000206040518060c00160405290816000820154815260200160018201805461065690615842565b80601f016020809104026020016040519081016040528092919081815260200182805461068290615842565b80156106cf5780601f106106a4576101008083540402835291602001916106cf565b820191906000526020600020905b8154815290600101906020018083116106b257829003601f168201915b505050505081526020016002820180546106e890615842565b80601f016020809104026020016040519081016040528092919081815260200182805461071490615842565b80156107615780601f1061073657610100808354040283529160200191610761565b820191906000526020600020905b81548152906001019060200180831161074457829003601f168201915b5050505050815260200160038201805461077a90615842565b80601f01602080910402602001604051908101604052809291908181526020018280546107a690615842565b80156107f35780601f106107c8576101008083540402835291602001916107f3565b820191906000526020600020905b8154815290600101906020018083116107d657829003601f168201915b505050505081526020016004820160009054906101000a900473ffffffffffffffffffffffffffffffffffffffff1673ffffffffffffffffffffffffffffffffffffffff1673ffffffffffffffffffffffffffffffffffffffff16815260200160058201548152505082828151811061086f5761086e6157e4565b5b60200260200101819052508080610885906158a3565b9150506105a7565b508091505090565b600080546108a290615842565b80601f01602080910402602001604051908101604052809291908181526020018280546108ce90615842565b801561091b5780601f106108f05761010080835404028352916020019161091b565b820191906000526020600020905b8154815290600101906020018083116108fe57829003601f168201915b505050505081565b6008600082815260200190815260200160002060008082016000905560018201600061094f9190613fe3565b6002820160008082016000905560018201600061096c9190613fe3565b60028201600061097c9190613fe3565b60038201600061098c9190613fe3565b6004820160006101000a81549073ffffffffffffffffffffffffffffffffffffffff0219169055600582016000905550506008820160009055505050565b6060600060045467ffffffffffffffff8111156109ea576109e9614652565b5b604051908082528060200260200182016040528015610a2357816020015b610a10614023565b815260200190600190039081610a085790505b509050600c6000848152602001908152602001600020600081548110610a4c57610a4b6157e4565b5b906000526020600020906003020160000154831415610bff57600c6000848152602001908152602001600020805480602002602001604051908101604052809291908181526020016000905b82821015610bf8578382906000526020600020906003020160405180606001604052908160008201548152602001600182018054610ad590615842565b80601f0160208091040260200160405190810160405280929190818152602001828054610b0190615842565b8015610b4e5780601f10610b2357610100808354040283529160200191610b4e565b820191906000526020600020905b815481529060010190602001808311610b3157829003601f168201915b50505050508152602001600282018054610b6790615842565b80601f0160208091040260200160405190810160405280929190818152602001828054610b9390615842565b8015610be05780601f10610bb557610100808354040283529160200191610be0565b820191906000526020600020905b815481529060010190602001808311610bc357829003601f168201915b50505050508152505081526020019060010190610a98565b5050505090505b80915050919050565b6000825111610c1657600080fd5b600073ffffffffffffffffffffffffffffffffffffffff163373ffffffffffffffffffffffffffffffffffffffff161415610c5057600080fd5b806080015173ffffffffffffffffffffffffffffffffffffffff163373ffffffffffffffffffffffffffffffffffffffff1614610cc2576040517f08c379a0000000000000000000000000000000000000000000000000000000008152600401610cb99061595e565b60405180910390fd5b60016000815480929190610cd5906158a3565b919050555060005b8351811015610d1f57610d0c848281518110610cfc57610cfb6157e4565b5b6020026020010151600154613eca565b8080610d17906158a3565b915050610cdd565b506040518060800160405280600154815260200183815260200182815260200142815250600860006001548152602001908152602001600020600082015181600001556020820151816001019080519060200190610d7e929190614044565b50604082015181600201600082015181600001556020820151816001019080519060200190610dae929190614044565b506040820151816002019080519060200190610dcb929190614044565b506060820151816003019080519060200190610de8929190614044565b5060808201518160040160006101000a81548173ffffffffffffffffffffffffffffffffffffffff021916908373ffffffffffffffffffffffffffffffffffffffff16021790555060a082015181600501555050606082015181600801559050507fb4e039aadbbb3515fdd7620ee43a73a11f9588dd90a980924a39f655f3a60bd3600154838342604051610e80949392919061598d565b60405180910390a1505050565b600082118015610e9f57506001548211155b610ea857600080fd5b60005b60025481101561102b5782600a6000600184610ec791906159e0565b815260200190815260200160002060000154148015610f7a5750600a6000600183610ef291906159e0565b815260200190815260200160002060010160040160009054906101000a900473ffffffffffffffffffffffffffffffffffffffff16604051602001610f379190615a7e565b604051602081830303815290604052805190602001208260800151604051602001610f629190615a7e565b60405160208183030381529060405280519060200120145b1561101857600a6000600183610f9091906159e0565b815260200190815260200160002060008082016000905560018201600080820160009055600182016000610fc49190613fe3565b600282016000610fd49190613fe3565b600382016000610fe49190613fe3565b6004820160006101000a81549073ffffffffffffffffffffffffffffffffffffffff02191690556005820160009055505050505b8080611023906158a3565b915050610eab565b507ff1366e2389fda3ff0caf968355950ba9ea1902549c048521ed8fdc8041824666828260405161105d929190615a99565b60405180910390a15050565b6110716140ca565b6110796140ca565b60086000848152602001908152602001600020604051806080016040529081600082015481526020016001820180546110b190615842565b80601f01602080910402602001604051908101604052809291908181526020018280546110dd90615842565b801561112a5780601f106110ff5761010080835404028352916020019161112a565b820191906000526020600020905b81548152906001019060200180831161110d57829003601f168201915b50505050508152602001600282016040518060c00160405290816000820154815260200160018201805461115d90615842565b80601f016020809104026020016040519081016040528092919081815260200182805461118990615842565b80156111d65780601f106111ab576101008083540402835291602001916111d6565b820191906000526020600020905b8154815290600101906020018083116111b957829003601f168201915b505050505081526020016002820180546111ef90615842565b80601f016020809104026020016040519081016040528092919081815260200182805461121b90615842565b80156112685780601f1061123d57610100808354040283529160200191611268565b820191906000526020600020905b81548152906001019060200180831161124b57829003601f168201915b5050505050815260200160038201805461128190615842565b80601f01602080910402602001604051908101604052809291908181526020018280546112ad90615842565b80156112fa5780601f106112cf576101008083540402835291602001916112fa565b820191906000526020600020905b8154815290600101906020018083116112dd57829003601f168201915b505050505081526020016004820160009054906101000a900473ffffffffffffffffffffffffffffffffffffffff1673ffffffffffffffffffffffffffffffffffffffff1673ffffffffffffffffffffffffffffffffffffffff16815260200160058201548152505081526020016008820154815250508160000181905250611382836135cf565b816020018190525061139383612c5d565b81604001819052506113a4836109ca565b816060018190525080915050919050565b6060600060015467ffffffffffffffff8111156113d5576113d4614652565b5b60405190808252806020026020018201604052801561140e57816020015b6113fb6140ca565b8152602001906001900390816113f35790505b50905060005b6001548110156117fc576008600060018361142f91906159e0565b81526020019081526020016000206040518060800160405290816000820154815260200160018201805461146290615842565b80601f016020809104026020016040519081016040528092919081815260200182805461148e90615842565b80156114db5780601f106114b0576101008083540402835291602001916114db565b820191906000526020600020905b8154815290600101906020018083116114be57829003601f168201915b50505050508152602001600282016040518060c00160405290816000820154815260200160018201805461150e90615842565b80601f016020809104026020016040519081016040528092919081815260200182805461153a90615842565b80156115875780601f1061155c57610100808354040283529160200191611587565b820191906000526020600020905b81548152906001019060200180831161156a57829003601f168201915b505050505081526020016002820180546115a090615842565b80601f01602080910402602001604051908101604052809291908181526020018280546115cc90615842565b80156116195780601f106115ee57610100808354040283529160200191611619565b820191906000526020600020905b8154815290600101906020018083116115fc57829003601f168201915b5050505050815260200160038201805461163290615842565b80601f016020809104026020016040519081016040528092919081815260200182805461165e90615842565b80156116ab5780601f10611680576101008083540402835291602001916116ab565b820191906000526020600020905b81548152906001019060200180831161168e57829003601f168201915b505050505081526020016004820160009054906101000a900473ffffffffffffffffffffffffffffffffffffffff1673ffffffffffffffffffffffffffffffffffffffff1673ffffffffffffffffffffffffffffffffffffffff1681526020016005820154815250508152602001600882015481525050828281518110611735576117346157e4565b5b60200260200101516000018190525061175960018261175491906159e0565b6135cf565b82828151811061176c5761176b6157e4565b5b60200260200101516020018190525061179060018261178b91906159e0565b612c5d565b8282815181106117a3576117a26157e4565b5b6020026020010151604001819052506117c76001826117c291906159e0565b6109ca565b8282815181106117da576117d96157e4565b5b60200260200101516060018190525080806117f4906158a3565b915050611414565b508091505090565b6060600060015467ffffffffffffffff81111561182457611823614652565b5b60405190808252806020026020018201604052801561185d57816020015b61184a6140ca565b8152602001906001900390816118425790505b50905060005b600154811015611cc5578373ffffffffffffffffffffffffffffffffffffffff166008600060018461189591906159e0565b815260200190815260200160002060020160040160009054906101000a900473ffffffffffffffffffffffffffffffffffffffff1673ffffffffffffffffffffffffffffffffffffffff161415611cb257600860006001836118f791906159e0565b81526020019081526020016000206040518060800160405290816000820154815260200160018201805461192a90615842565b80601f016020809104026020016040519081016040528092919081815260200182805461195690615842565b80156119a35780601f10611978576101008083540402835291602001916119a3565b820191906000526020600020905b81548152906001019060200180831161198657829003601f168201915b50505050508152602001600282016040518060c0016040529081600082015481526020016001820180546119d690615842565b80601f0160208091040260200160405190810160405280929190818152602001828054611a0290615842565b8015611a4f5780601f10611a2457610100808354040283529160200191611a4f565b820191906000526020600020905b815481529060010190602001808311611a3257829003601f168201915b50505050508152602001600282018054611a6890615842565b80601f0160208091040260200160405190810160405280929190818152602001828054611a9490615842565b8015611ae15780601f10611ab657610100808354040283529160200191611ae1565b820191906000526020600020905b815481529060010190602001808311611ac457829003601f168201915b50505050508152602001600382018054611afa90615842565b80601f0160208091040260200160405190810160405280929190818152602001828054611b2690615842565b8015611b735780601f10611b4857610100808354040283529160200191611b73565b820191906000526020600020905b815481529060010190602001808311611b5657829003601f168201915b505050505081526020016004820160009054906101000a900473ffffffffffffffffffffffffffffffffffffffff1673ffffffffffffffffffffffffffffffffffffffff1673ffffffffffffffffffffffffffffffffffffffff1681526020016005820154815250508152602001600882015481525050828281518110611bfd57611bfc6157e4565b5b602002602001015160000181905250611c21600182611c1c91906159e0565b6135cf565b828281518110611c3457611c336157e4565b5b602002602001015160200181905250611c58600182611c5391906159e0565b612c5d565b828281518110611c6b57611c6a6157e4565b5b602002602001015160400181905250611c8f600182611c8a91906159e0565b6109ca565b828281518110611ca257611ca16157e4565b5b6020026020010151606001819052505b8080611cbd906158a3565b915050611863565b5080915050919050565b600073ffffffffffffffffffffffffffffffffffffffff163373ffffffffffffffffffffffffffffffffffffffff161415611d0957600080fd5b600073ffffffffffffffffffffffffffffffffffffffff168173ffffffffffffffffffffffffffffffffffffffff161415611d4357600080fd5b600960008273ffffffffffffffffffffffffffffffffffffffff1673ffffffffffffffffffffffffffffffffffffffff168152602001908152602001600020600080820160009055600182016000611d9b9190613fe3565b600282016000611dab9190613fe3565b600382016000611dbb9190613fe3565b6004820160006101000a81549073ffffffffffffffffffffffffffffffffffffffff02191690556005820160009055505060005b600780549050811015611ec7578173ffffffffffffffffffffffffffffffffffffffff1660078281548110611e2757611e266157e4565b5b9060005260206000200160009054906101000a900473ffffffffffffffffffffffffffffffffffffffff1673ffffffffffffffffffffffffffffffffffffffff161415611eb45760078181548110611e8257611e816157e4565b5b9060005260206000200160006101000a81549073ffffffffffffffffffffffffffffffffffffffff0219169055611ec7565b8080611ebf906158a3565b915050611def565b5050565b6060600082118015611edf57506005548211155b611ee857600080fd5b600060015467ffffffffffffffff811115611f0657611f05614652565b5b604051908082528060200260200182016040528015611f3f57816020015b611f2c6140f8565b815260200190600190039081611f245790505b5090506000611f4d846139c7565b905060005b8151811015611fc1576000611f88838381518110611f7357611f726157e4565b5b60200260200101516020015160800151611804565b905080848381518110611f9e57611f9d6157e4565b5b602002602001015160000181905250508080611fb9906158a3565b915050611f52565b508192505050919050565b611fd4613f97565b600960008373ffffffffffffffffffffffffffffffffffffffff1673ffffffffffffffffffffffffffffffffffffffff1681526020019081526020016000206040518060c00160405290816000820154815260200160018201805461203890615842565b80601f016020809104026020016040519081016040528092919081815260200182805461206490615842565b80156120b15780601f10612086576101008083540402835291602001916120b1565b820191906000526020600020905b81548152906001019060200180831161209457829003601f168201915b505050505081526020016002820180546120ca90615842565b80601f01602080910402602001604051908101604052809291908181526020018280546120f690615842565b80156121435780601f1061211857610100808354040283529160200191612143565b820191906000526020600020905b81548152906001019060200180831161212657829003601f168201915b5050505050815260200160038201805461215c90615842565b80601f016020809104026020016040519081016040528092919081815260200182805461218890615842565b80156121d55780601f106121aa576101008083540402835291602001916121d5565b820191906000526020600020905b8154815290600101906020018083116121b857829003601f168201915b505050505081526020016004820160009054906101000a900473ffffffffffffffffffffffffffffffffffffffff1673ffffffffffffffffffffffffffffffffffffffff1673ffffffffffffffffffffffffffffffffffffffff1681526020016005820154815250509050919050565b600b600082815260200190815260200160002060008082016000808201600090556001820160006122769190613fe3565b6002820160006122869190613fe3565b6003820160006122969190613fe3565b6004820160006101000a81549073ffffffffffffffffffffffffffffffffffffffff0219169055600582016000905550506006820160006122d79190613fe3565b600782016000905560088201600090556009820160009055505050565b60005b60078054905081101561247d5781604001516040516020016123199190615b05565b60405160208183030381529060405280519060200120846040516020016123409190615b05565b604051602081830303815290604052805190602001201461246a576009600060078381548110612373576123726157e4565b5b9060005260206000200160009054906101000a900473ffffffffffffffffffffffffffffffffffffffff1673ffffffffffffffffffffffffffffffffffffffff1673ffffffffffffffffffffffffffffffffffffffff1681526020019081526020016000206002016040516020016123eb9190615bb0565b60405160208183030381529060405280519060200120846040516020016124129190615b05565b604051602081830303815290604052805190602001201415612469576040517f08c379a000000000000000000000000000000000000000000000000000000000815260040161246090615c39565b60405180910390fd5b5b8080612475906158a3565b9150506122f7565b506040518060c0016040528082600001518152602001858152602001848152602001838152602001826080015173ffffffffffffffffffffffffffffffffffffffff1681526020014281525060096000836080015173ffffffffffffffffffffffffffffffffffffffff1673ffffffffffffffffffffffffffffffffffffffff168152602001908152602001600020600082015181600001556020820151816001019080519060200190612532929190614044565b50604082015181600201908051906020019061254f929190614044565b50606082015181600301908051906020019061256c929190614044565b5060808201518160040160006101000a81548173ffffffffffffffffffffffffffffffffffffffff021916908373ffffffffffffffffffffffffffffffffffffffff16021790555060a082015181600501559050507fec97861c7cd6b058aef1c05fe14d891082c47bf39d4871626dfe5904b69e146481600001518585858560800151604051612600959493929190615c68565b60405180910390a150505050565b60005b60078054905081101561284e576009600060078381548110612636576126356157e4565b5b9060005260206000200160009054906101000a900473ffffffffffffffffffffffffffffffffffffffff1673ffffffffffffffffffffffffffffffffffffffff1673ffffffffffffffffffffffffffffffffffffffff1681526020019081526020016000206002016040516020016126ae9190615bb0565b60405160208183030381529060405280519060200120856040516020016126d59190615b05565b60405160208183030381529060405280519060200120141561272c576040517f08c379a000000000000000000000000000000000000000000000000000000000815260040161272390615c39565b60405180910390fd5b6009600060078381548110612744576127436157e4565b5b9060005260206000200160009054906101000a900473ffffffffffffffffffffffffffffffffffffffff1673ffffffffffffffffffffffffffffffffffffffff1673ffffffffffffffffffffffffffffffffffffffff16815260200190815260200160002060040160009054906101000a900473ffffffffffffffffffffffffffffffffffffffff1673ffffffffffffffffffffffffffffffffffffffff168273ffffffffffffffffffffffffffffffffffffffff16141561283b576040517f08c379a000000000000000000000000000000000000000000000000000000000815260040161283290615d1c565b60405180910390fd5b8080612846906158a3565b915050612611565b5060056000815480929190612862906158a3565b91905055506040518060c0016040528060055481526020018481526020018581526020018381526020018273ffffffffffffffffffffffffffffffffffffffff16815260200142815250600960008373ffffffffffffffffffffffffffffffffffffffff1673ffffffffffffffffffffffffffffffffffffffff168152602001908152602001600020600082015181600001556020820151816001019080519060200190612911929190614044565b50604082015181600201908051906020019061292e929190614044565b50606082015181600301908051906020019061294b929190614044565b5060808201518160040160006101000a81548173ffffffffffffffffffffffffffffffffffffffff021916908373ffffffffffffffffffffffffffffffffffffffff16021790555060a082015181600501559050506007819080600181540180825580915050600190039060005260206000200160009091909190916101000a81548173ffffffffffffffffffffffffffffffffffffffff021916908373ffffffffffffffffffffffffffffffffffffffff1602179055507fd3887822db5f50533e656f4d22040e5b1b5a105b9a272def66f085f44cf6b27a6005548486858542604051612a3e96959493929190615d3c565b60405180910390a150505050565b600082118015612a5e57506005548211155b612a6757600080fd5b6000612a72836139c7565b905060005b8151811015612b1257818181518110612a9357612a926157e4565b5b60200260200101516020015160800151604051602001612ab39190615a7e565b604051602081830303815290604052805190602001208360800151604051602001612ade9190615a7e565b604051602081830303815290604052805190602001201415612aff57600080fd5b8080612b0a906158a3565b915050612a77565b5060066000815480929190612b26906158a3565b9190505550604051806040016040528084815260200183815250600d6000600654815260200190815260200160002060008201518160000155602082015181600101600082015181600001556020820151816001019080519060200190612b8e929190614044565b506040820151816002019080519060200190612bab929190614044565b506060820151816003019080519060200190612bc8929190614044565b5060808201518160040160006101000a81548173ffffffffffffffffffffffffffffffffffffffff021916908373ffffffffffffffffffffffffffffffffffffffff16021790555060a0820151816005015550509050507fe99e8ff60821473f9a409589a9306058c3e0f1270154bc5d64fb67160c1c4b238383604051612c50929190615a99565b60405180910390a1505050565b6060600060025467ffffffffffffffff811115612c7d57612c7c614652565b5b604051908082528060200260200182016040528015612cb657816020015b612ca361410b565b815260200190600190039081612c9b5790505b50905060005b600254811015612f8a57600a6000600183612cd791906159e0565b815260200190815260200160002060000154841415612f7757600a6000600183612d0191906159e0565b815260200190815260200160002060405180604001604052908160008201548152602001600182016040518060c001604052908160008201548152602001600182018054612d4e90615842565b80601f0160208091040260200160405190810160405280929190818152602001828054612d7a90615842565b8015612dc75780601f10612d9c57610100808354040283529160200191612dc7565b820191906000526020600020905b815481529060010190602001808311612daa57829003601f168201915b50505050508152602001600282018054612de090615842565b80601f0160208091040260200160405190810160405280929190818152602001828054612e0c90615842565b8015612e595780601f10612e2e57610100808354040283529160200191612e59565b820191906000526020600020905b815481529060010190602001808311612e3c57829003601f168201915b50505050508152602001600382018054612e7290615842565b80601f0160208091040260200160405190810160405280929190818152602001828054612e9e90615842565b8015612eeb5780601f10612ec057610100808354040283529160200191612eeb565b820191906000526020600020905b815481529060010190602001808311612ece57829003601f168201915b505050505081526020016004820160009054906101000a900473ffffffffffffffffffffffffffffffffffffffff1673ffffffffffffffffffffffffffffffffffffffff1673ffffffffffffffffffffffffffffffffffffffff16815260200160058201548152505081525050828281518110612f6b57612f6a6157e4565b5b60200260200101819052505b8080612f82906158a3565b915050612cbc565b5080915050919050565b600082118015612fa657506001548211155b612faf57600080fd5b6000612fba83612c5d565b905060005b815181101561305a57818181518110612fdb57612fda6157e4565b5b60200260200101516020015160800151604051602001612ffb9190615a7e565b6040516020818303038152906040528051906020012083608001516040516020016130269190615a7e565b60405160208183030381529060405280519060200120141561304757600080fd5b8080613052906158a3565b915050612fbf565b506002600081548092919061306e906158a3565b9190505550604051806040016040528084815260200183815250600a60006002548152602001908152602001600020600082015181600001556020820151816001016000820151816000015560208201518160010190805190602001906130d6929190614044565b5060408201518160020190805190602001906130f3929190614044565b506060820151816003019080519060200190613110929190614044565b5060808201518160040160006101000a81548173ffffffffffffffffffffffffffffffffffffffff021916908373ffffffffffffffffffffffffffffffffffffffff16021790555060a0820151816005015550509050507f4e8cc8c932407143fc763f350dbab924a82739df1a11ff79471978b1d0b1aefd8383604051613198929190615a99565b60405180910390a1505050565b6131ad613f97565b60005b6007805490508110156135535760096000600783815481106131d5576131d46157e4565b5b9060005260206000200160009054906101000a900473ffffffffffffffffffffffffffffffffffffffff1673ffffffffffffffffffffffffffffffffffffffff1673ffffffffffffffffffffffffffffffffffffffff16815260200190815260200160002060020160405160200161324d9190615bb0565b60405160208183030381529060405280519060200120836040516020016132749190615b05565b6040516020818303038152906040528051906020012014156135405760096000600783815481106132a8576132a76157e4565b5b9060005260206000200160009054906101000a900473ffffffffffffffffffffffffffffffffffffffff1673ffffffffffffffffffffffffffffffffffffffff1673ffffffffffffffffffffffffffffffffffffffff1681526020019081526020016000206040518060c00160405290816000820154815260200160018201805461333290615842565b80601f016020809104026020016040519081016040528092919081815260200182805461335e90615842565b80156133ab5780601f10613380576101008083540402835291602001916133ab565b820191906000526020600020905b81548152906001019060200180831161338e57829003601f168201915b505050505081526020016002820180546133c490615842565b80601f01602080910402602001604051908101604052809291908181526020018280546133f090615842565b801561343d5780601f106134125761010080835404028352916020019161343d565b820191906000526020600020905b81548152906001019060200180831161342057829003601f168201915b5050505050815260200160038201805461345690615842565b80601f016020809104026020016040519081016040528092919081815260200182805461348290615842565b80156134cf5780601f106134a4576101008083540402835291602001916134cf565b820191906000526020600020905b8154815290600101906020018083116134b257829003601f168201915b505050505081526020016004820160009054906101000a900473ffffffffffffffffffffffffffffffffffffffff1673ffffffffffffffffffffffffffffffffffffffff1673ffffffffffffffffffffffffffffffffffffffff1681526020016005820154815250509150506135ca565b808061354b906158a3565b9150506131b0565b506040518060c0016040528060008152602001604051806020016040528060008152508152602001604051806020016040528060008152508152602001604051806020016040528060008152508152602001600073ffffffffffffffffffffffffffffffffffffffff168152602001600081525090505b919050565b60606000821180156135e357506001548211155b6135ec57600080fd5b600060035467ffffffffffffffff81111561360a57613609614652565b5b60405190808252806020026020018201604052801561364357816020015b61363061412b565b8152602001906001900390816136285790505b50905060005b6003548110156139bd57600b600060018361366491906159e0565b8152602001908152602001600020600701548414156139aa57600b600060018361368e91906159e0565b81526020019081526020016000206040518060a0016040529081600082016040518060c0016040529081600082015481526020016001820180546136d190615842565b80601f01602080910402602001604051908101604052809291908181526020018280546136fd90615842565b801561374a5780601f1061371f5761010080835404028352916020019161374a565b820191906000526020600020905b81548152906001019060200180831161372d57829003601f168201915b5050505050815260200160028201805461376390615842565b80601f016020809104026020016040519081016040528092919081815260200182805461378f90615842565b80156137dc5780601f106137b1576101008083540402835291602001916137dc565b820191906000526020600020905b8154815290600101906020018083116137bf57829003601f168201915b505050505081526020016003820180546137f590615842565b80601f016020809104026020016040519081016040528092919081815260200182805461382190615842565b801561386e5780601f106138435761010080835404028352916020019161386e565b820191906000526020600020905b81548152906001019060200180831161385157829003601f168201915b505050505081526020016004820160009054906101000a900473ffffffffffffffffffffffffffffffffffffffff1673ffffffffffffffffffffffffffffffffffffffff1673ffffffffffffffffffffffffffffffffffffffff16815260200160058201548152505081526020016006820180546138eb90615842565b80601f016020809104026020016040519081016040528092919081815260200182805461391790615842565b80156139645780601f1061393957610100808354040283529160200191613964565b820191906000526020600020905b81548152906001019060200180831161394757829003601f168201915b50505050508152602001600782015481526020016008820154815260200160098201548152505082828151811061399e5761399d6157e4565b5b60200260200101819052505b80806139b5906158a3565b915050613649565b5080915050919050565b60606000821180156139db57506005548211155b6139e457600080fd5b600060065467ffffffffffffffff811115613a0257613a01614652565b5b604051908082528060200260200182016040528015613a3b57816020015b613a28614160565b815260200190600190039081613a205790505b50905060005b8151811015613d0e57600d6000600183613a5b91906159e0565b815260200190815260200160002060000154841415613cfb57600d6000600183613a8591906159e0565b815260200190815260200160002060405180604001604052908160008201548152602001600182016040518060c001604052908160008201548152602001600182018054613ad290615842565b80601f0160208091040260200160405190810160405280929190818152602001828054613afe90615842565b8015613b4b5780601f10613b2057610100808354040283529160200191613b4b565b820191906000526020600020905b815481529060010190602001808311613b2e57829003601f168201915b50505050508152602001600282018054613b6490615842565b80601f0160208091040260200160405190810160405280929190818152602001828054613b9090615842565b8015613bdd5780601f10613bb257610100808354040283529160200191613bdd565b820191906000526020600020905b815481529060010190602001808311613bc057829003601f168201915b50505050508152602001600382018054613bf690615842565b80601f0160208091040260200160405190810160405280929190818152602001828054613c2290615842565b8015613c6f5780601f10613c4457610100808354040283529160200191613c6f565b820191906000526020600020905b815481529060010190602001808311613c5257829003601f168201915b505050505081526020016004820160009054906101000a900473ffffffffffffffffffffffffffffffffffffffff1673ffffffffffffffffffffffffffffffffffffffff1673ffffffffffffffffffffffffffffffffffffffff16815260200160058201548152505081525050828281518110613cef57613cee6157e4565b5b60200260200101819052505b8080613d06906158a3565b915050613a41565b5080915050919050565b600083118015613d2a57506001548311155b613d3357600080fd5b60036000815480929190613d46906158a3565b91905055506040518060a00160405280828152602001838152602001848152602001600354815260200142815250600b60006003548152602001908152602001600020600082015181600001600082015181600001556020820151816001019080519060200190613db8929190614044565b506040820151816002019080519060200190613dd5929190614044565b506060820151816003019080519060200190613df2929190614044565b5060808201518160040160006101000a81548173ffffffffffffffffffffffffffffffffffffffff021916908373ffffffffffffffffffffffffffffffffffffffff16021790555060a0820151816005015550506020820151816006019080519060200190613e62929190614044565b506040820151816007015560608201518160080155608082015181600901559050507f6f0cdc7ee814b734269a5b8ca79be60f379c851d042ffb2d65e1a54c08aef89a60035484848442604051613ebd959493929190615db2565b60405180910390a1505050565b600082602001515111613edc57600080fd5b600082604001515111613eee57600080fd5b60046000815480929190613f01906158a3565b919050555080826000018181525050600c6000828152602001908152602001600020829080600181540180825580915050600190039060005260206000209060030201600090919091909150600082015181600001556020820151816001019080519060200190613f73929190614044565b506040820151816002019080519060200190613f90929190614044565b5050505050565b6040518060c0016040528060008152602001606081526020016060815260200160608152602001600073ffffffffffffffffffffffffffffffffffffffff168152602001600081525090565b508054613fef90615842565b6000825580601f106140015750614020565b601f01602090049060005260206000209081019061401f9190614180565b5b50565b60405180606001604052806000815260200160608152602001606081525090565b82805461405090615842565b90600052602060002090601f01602090048101928261407257600085556140b9565b82601f1061408b57805160ff19168380011785556140b9565b828001600101855582156140b9579182015b828111156140b857825182559160200191906001019061409d565b5b5090506140c69190614180565b5090565b60405180608001604052806140dd61419d565b81526020016060815260200160608152602001606081525090565b6040518060200160405280606081525090565b604051806040016040528060008152602001614125613f97565b81525090565b6040518060a0016040528061413e613f97565b8152602001606081526020016000815260200160008152602001600081525090565b60405180604001604052806000815260200161417a613f97565b81525090565b5b80821115614199576000816000905550600101614181565b5090565b604051806080016040528060008152602001606081526020016141be613f97565b8152602001600081525090565b600081519050919050565b600082825260208201905092915050565b6000819050602082019050919050565b6000819050919050565b61420a816141f7565b82525050565b600081519050919050565b600082825260208201905092915050565b60005b8381101561424a57808201518184015260208101905061422f565b83811115614259576000848401525b50505050565b6000601f19601f8301169050919050565b600061427b82614210565b614285818561421b565b935061429581856020860161422c565b61429e8161425f565b840191505092915050565b600073ffffffffffffffffffffffffffffffffffffffff82169050919050565b60006142d4826142a9565b9050919050565b6142e4816142c9565b82525050565b600060c0830160008301516143026000860182614201565b506020830151848203602086015261431a8282614270565b915050604083015184820360408601526143348282614270565b9150506060830151848203606086015261434e8282614270565b915050608083015161436360808601826142db565b5060a083015161437660a0860182614201565b508091505092915050565b600061438d83836142ea565b905092915050565b6000602082019050919050565b60006143ad826141cb565b6143b781856141d6565b9350836020820285016143c9856141e7565b8060005b8581101561440557848403895281516143e68582614381565b94506143f183614395565b925060208a019950506001810190506143cd565b50829750879550505050505092915050565b6000602082019050818103600083015261443181846143a2565b905092915050565b600082825260208201905092915050565b600061445582614210565b61445f8185614439565b935061446f81856020860161422c565b6144788161425f565b840191505092915050565b6000602082019050818103600083015261449d818461444a565b905092915050565b6000604051905090565b600080fd5b600080fd5b6144c2816141f7565b81146144cd57600080fd5b50565b6000813590506144df816144b9565b92915050565b6000602082840312156144fb576144fa6144af565b5b6000614509848285016144d0565b91505092915050565b600081519050919050565b600082825260208201905092915050565b6000819050602082019050919050565b60006060830160008301516145566000860182614201565b506020830151848203602086015261456e8282614270565b915050604083015184820360408601526145888282614270565b9150508091505092915050565b60006145a1838361453e565b905092915050565b6000602082019050919050565b60006145c182614512565b6145cb818561451d565b9350836020820285016145dd8561452e565b8060005b8581101561461957848403895281516145fa8582614595565b9450614605836145a9565b925060208a019950506001810190506145e1565b50829750879550505050505092915050565b6000602082019050818103600083015261464581846145b6565b905092915050565b600080fd5b7f4e487b7100000000000000000000000000000000000000000000000000000000600052604160045260246000fd5b61468a8261425f565b810181811067ffffffffffffffff821117156146a9576146a8614652565b5b80604052505050565b60006146bc6144a5565b90506146c88282614681565b919050565b600067ffffffffffffffff8211156146e8576146e7614652565b5b602082029050602081019050919050565b600080fd5b600080fd5b600080fd5b600080fd5b600067ffffffffffffffff82111561472857614727614652565b5b6147318261425f565b9050602081019050919050565b82818337600083830152505050565b600061476061475b8461470d565b6146b2565b90508281526020810184848401111561477c5761477b614708565b5b61478784828561473e565b509392505050565b600082601f8301126147a4576147a361464d565b5b81356147b484826020860161474d565b91505092915050565b6000606082840312156147d3576147d26146fe565b5b6147dd60606146b2565b905060006147ed848285016144d0565b600083015250602082013567ffffffffffffffff81111561481157614810614703565b5b61481d8482850161478f565b602083015250604082013567ffffffffffffffff81111561484157614840614703565b5b61484d8482850161478f565b60408301525092915050565b600061486c614867846146cd565b6146b2565b9050808382526020820190506020840283018581111561488f5761488e6146f9565b5b835b818110156148d657803567ffffffffffffffff8111156148b4576148b361464d565b5b8086016148c189826147bd565b85526020850194505050602081019050614891565b5050509392505050565b600082601f8301126148f5576148f461464d565b5b8135614905848260208601614859565b91505092915050565b614917816142c9565b811461492257600080fd5b50565b6000813590506149348161490e565b92915050565b600060c082840312156149505761494f6146fe565b5b61495a60c06146b2565b9050600061496a848285016144d0565b600083015250602082013567ffffffffffffffff81111561498e5761498d614703565b5b61499a8482850161478f565b602083015250604082013567ffffffffffffffff8111156149be576149bd614703565b5b6149ca8482850161478f565b604083015250606082013567ffffffffffffffff8111156149ee576149ed614703565b5b6149fa8482850161478f565b6060830152506080614a0e84828501614925565b60808301525060a0614a22848285016144d0565b60a08301525092915050565b600080600060608486031215614a4757614a466144af565b5b600084013567ffffffffffffffff811115614a6557614a646144b4565b5b614a71868287016148e0565b935050602084013567ffffffffffffffff811115614a9257614a916144b4565b5b614a9e8682870161478f565b925050604084013567ffffffffffffffff811115614abf57614abe6144b4565b5b614acb8682870161493a565b9150509250925092565b60008060408385031215614aec57614aeb6144af565b5b6000614afa858286016144d0565b925050602083013567ffffffffffffffff811115614b1b57614b1a6144b4565b5b614b278582860161493a565b9150509250929050565b6000608083016000830151614b496000860182614201565b5060208301518482036020860152614b618282614270565b91505060408301518482036040860152614b7b82826142ea565b9150506060830151614b906060860182614201565b508091505092915050565b600081519050919050565b600082825260208201905092915050565b6000819050602082019050919050565b600060a0830160008301518482036000860152614be482826142ea565b91505060208301518482036020860152614bfe8282614270565b9150506040830151614c136040860182614201565b506060830151614c266060860182614201565b506080830151614c396080860182614201565b508091505092915050565b6000614c508383614bc7565b905092915050565b6000602082019050919050565b6000614c7082614b9b565b614c7a8185614ba6565b935083602082028501614c8c85614bb7565b8060005b85811015614cc85784840389528151614ca98582614c44565b9450614cb483614c58565b925060208a01995050600181019050614c90565b50829750879550505050505092915050565b600081519050919050565b600082825260208201905092915050565b6000819050602082019050919050565b6000604083016000830151614d1e6000860182614201565b5060208301518482036020860152614d3682826142ea565b9150508091505092915050565b6000614d4f8383614d06565b905092915050565b6000602082019050919050565b6000614d6f82614cda565b614d798185614ce5565b935083602082028501614d8b85614cf6565b8060005b85811015614dc75784840389528151614da88582614d43565b9450614db383614d57565b925060208a01995050600181019050614d8f565b50829750879550505050505092915050565b600082825260208201905092915050565b6000614df582614512565b614dff8185614dd9565b935083602082028501614e118561452e565b8060005b85811015614e4d5784840389528151614e2e8582614595565b9450614e39836145a9565b925060208a01995050600181019050614e15565b50829750879550505050505092915050565b60006080830160008301518482036000860152614e7c8282614b31565b91505060208301518482036020860152614e968282614c65565b91505060408301518482036040860152614eb08282614d64565b91505060608301518482036060860152614eca8282614dea565b9150508091505092915050565b60006020820190508181036000830152614ef18184614e5f565b905092915050565b600081519050919050565b600082825260208201905092915050565b6000819050602082019050919050565b60006080830160008301518482036000860152614f428282614b31565b91505060208301518482036020860152614f5c8282614c65565b91505060408301518482036040860152614f768282614d64565b91505060608301518482036060860152614f908282614dea565b9150508091505092915050565b6000614fa98383614f25565b905092915050565b6000602082019050919050565b6000614fc982614ef9565b614fd38185614f04565b935083602082028501614fe585614f15565b8060005b8581101561502157848403895281516150028582614f9d565b945061500d83614fb1565b925060208a01995050600181019050614fe9565b50829750879550505050505092915050565b6000602082019050818103600083015261504d8184614fbe565b905092915050565b6000615060826142a9565b9050919050565b61507081615055565b811461507b57600080fd5b50565b60008135905061508d81615067565b92915050565b6000602082840312156150a9576150a86144af565b5b60006150b78482850161507e565b91505092915050565b600081519050919050565b600082825260208201905092915050565b6000819050602082019050919050565b600082825260208201905092915050565b600061510882614ef9565b61511281856150ec565b93508360208202850161512485614f15565b8060005b8581101561516057848403895281516151418582614f9d565b945061514c83614fb1565b925060208a01995050600181019050615128565b50829750879550505050505092915050565b6000602083016000830151848203600086015261518f82826150fd565b9150508091505092915050565b60006151a88383615172565b905092915050565b6000602082019050919050565b60006151c8826150c0565b6151d281856150cb565b9350836020820285016151e4856150dc565b8060005b858110156152205784840389528151615201858261519c565b945061520c836151b0565b925060208a019950506001810190506151e8565b50829750879550505050505092915050565b6000602082019050818103600083015261524c81846151bd565b905092915050565b600060c08301600083015161526c6000860182614201565b50602083015184820360208601526152848282614270565b9150506040830151848203604086015261529e8282614270565b915050606083015184820360608601526152b88282614270565b91505060808301516152cd60808601826142db565b5060a08301516152e060a0860182614201565b508091505092915050565b600060208201905081810360008301526153058184615254565b905092915050565b60008060008060808587031215615327576153266144af565b5b600085013567ffffffffffffffff811115615345576153446144b4565b5b6153518782880161478f565b945050602085013567ffffffffffffffff811115615372576153716144b4565b5b61537e8782880161478f565b935050604085013567ffffffffffffffff81111561539f5761539e6144b4565b5b6153ab8782880161478f565b925050606085013567ffffffffffffffff8111156153cc576153cb6144b4565b5b6153d88782880161493a565b91505092959194509250565b600080600080608085870312156153fe576153fd6144af565b5b600085013567ffffffffffffffff81111561541c5761541b6144b4565b5b6154288782880161478f565b945050602085013567ffffffffffffffff811115615449576154486144b4565b5b6154558782880161478f565b935050604085013567ffffffffffffffff811115615476576154756144b4565b5b6154828782880161478f565b92505060606154938782880161507e565b91505092959194509250565b600082825260208201905092915050565b60006154bb82614cda565b6154c5818561549f565b9350836020820285016154d785614cf6565b8060005b8581101561551357848403895281516154f48582614d43565b94506154ff83614d57565b925060208a019950506001810190506154db565b50829750879550505050505092915050565b6000602082019050818103600083015261553f81846154b0565b905092915050565b60006020828403121561555d5761555c6144af565b5b600082013567ffffffffffffffff81111561557b5761557a6144b4565b5b6155878482850161478f565b91505092915050565b600082825260208201905092915050565b60006155ac82614b9b565b6155b68185615590565b9350836020820285016155c885614bb7565b8060005b8581101561560457848403895281516155e58582614c44565b94506155f083614c58565b925060208a019950506001810190506155cc565b50829750879550505050505092915050565b6000602082019050818103600083015261563081846155a1565b905092915050565b600081519050919050565b600082825260208201905092915050565b6000819050602082019050919050565b600060408301600083015161567c6000860182614201565b506020830151848203602086015261569482826142ea565b9150508091505092915050565b60006156ad8383615664565b905092915050565b6000602082019050919050565b60006156cd82615638565b6156d78185615643565b9350836020820285016156e985615654565b8060005b85811015615725578484038952815161570685826156a1565b9450615711836156b5565b925060208a019950506001810190506156ed565b50829750879550505050505092915050565b6000602082019050818103600083015261575181846156c2565b905092915050565b600080600060608486031215615772576157716144af565b5b6000615780868287016144d0565b935050602084013567ffffffffffffffff8111156157a1576157a06144b4565b5b6157ad8682870161478f565b925050604084013567ffffffffffffffff8111156157ce576157cd6144b4565b5b6157da8682870161493a565b9150509250925092565b7f4e487b7100000000000000000000000000000000000000000000000000000000600052603260045260246000fd5b7f4e487b7100000000000000000000000000000000000000000000000000000000600052602260045260246000fd5b6000600282049050600182168061585a57607f821691505b6020821081141561586e5761586d615813565b5b50919050565b7f4e487b7100000000000000000000000000000000000000000000000000000000600052601160045260246000fd5b60006158ae826141f7565b91507fffffffffffffffffffffffffffffffffffffffffffffffffffffffffffffffff8214156158e1576158e0615874565b5b600182019050919050565b7f6f6e6c792063757272656e74206f776e65722063616e20757064617465206f7760008201527f6e65720000000000000000000000000000000000000000000000000000000000602082015250565b6000615948602383614439565b9150615953826158ec565b604082019050919050565b600060208201905081810360008301526159778161593b565b9050919050565b615987816141f7565b82525050565b60006080820190506159a2600083018761597e565b81810360208301526159b4818661444a565b905081810360408301526159c88185615254565b90506159d7606083018461597e565b95945050505050565b60006159eb826141f7565b91506159f6836141f7565b9250827fffffffffffffffffffffffffffffffffffffffffffffffffffffffffffffffff03821115615a2b57615a2a615874565b5b828201905092915050565b60008160601b9050919050565b6000615a4e82615a36565b9050919050565b6000615a6082615a43565b9050919050565b615a78615a73826142c9565b615a55565b82525050565b6000615a8a8284615a67565b60148201915081905092915050565b6000604082019050615aae600083018561597e565b8181036020830152615ac08184615254565b90509392505050565b600081905092915050565b6000615adf82614210565b615ae98185615ac9565b9350615af981856020860161422c565b80840191505092915050565b6000615b118284615ad4565b915081905092915050565b60008190508160005260206000209050919050565b60008154615b3e81615842565b615b488186615ac9565b94506001821660008114615b635760018114615b7457615ba7565b60ff19831686528186019350615ba7565b615b7d85615b1c565b60005b83811015615b9f57815481890152600182019150602081019050615b80565b838801955050505b50505092915050565b6000615bbc8284615b31565b915081905092915050565b7f557365726e616d6520616c72656164792065786973742c2074727920616e6f7460008201527f686572206f6e6500000000000000000000000000000000000000000000000000602082015250565b6000615c23602783614439565b9150615c2e82615bc7565b604082019050919050565b60006020820190508181036000830152615c5281615c16565b9050919050565b615c62816142c9565b82525050565b600060a082019050615c7d600083018861597e565b8181036020830152615c8f818761444a565b90508181036040830152615ca3818661444a565b90508181036060830152615cb7818561444a565b9050615cc66080830184615c59565b9695505050505050565b7f596f7520616c7265616479206861766520616e206163636f756e740000000000600082015250565b6000615d06601b83614439565b9150615d1182615cd0565b602082019050919050565b60006020820190508181036000830152615d3581615cf9565b9050919050565b600060c082019050615d51600083018961597e565b8181036020830152615d63818861444a565b90508181036040830152615d77818761444a565b90508181036060830152615d8b818661444a565b9050615d9a6080830185615c59565b615da760a083018461597e565b979650505050505050565b600060a082019050615dc7600083018861597e565b615dd4602083018761597e565b8181036040830152615de6818661444a565b90508181036060830152615dfa8185615254565b9050615e09608083018461597e565b969550505050505056fea264697066735822122032b09650a7d4a2c3039d547c3995025cecf509c813b0347afbb3bbbcec4febb764736f6c634300080a0033",
  "immutableReferences": {},
  "source": "// SPDX-License-Identifier: UNLISCENSED\r\npragma experimental ABIEncoderV2;\r\npragma solidity ^0.8.10;\r\n\r\ncontract SocialNetwork {\r\n    \r\n    string public name;\r\n    uint256 private postCount = 0;\r\n    uint256 private likesCount = 0;\r\n    uint256 private commentCount = 0;\r\n    uint256 private filesCount = 0;\r\n    uint256 private userCount = 0;\r\n    uint256 private followedCount = 0;\r\n    address[]  usersAddress;\r\n\r\n    mapping(uint256 => Post) private posts;\r\n    mapping(address => User) private users;\r\n    mapping(uint256 => Like) private likes;\r\n    mapping(uint256 => Comment) private comments;\r\n    mapping(uint256 => File[]) private files;\r\n    mapping(uint256 => Followed) private followed;\r\n\r\n\r\n    struct User {\r\n        uint256 id;\r\n        string image;\r\n        string username;\r\n        string description;\r\n        address payable account;\r\n        uint256 createDate;\r\n    }\r\n    struct Followed {\r\n        uint256 followerId;\r\n        User _followed;\r\n    }\r\n    struct FollowedUserPosts {\r\n        AllPostInfo[] _followedUsersPosts;\r\n    }\r\n    struct Comment {\r\n        User user;\r\n        string comment;\r\n        uint256 postId;\r\n        uint256 id;\r\n        uint256 commentDate;\r\n    }\r\n    struct AllPostInfo {\r\n        Post post;\r\n        Comment[] comments;\r\n        Like[] likes;\r\n        File[] files;\r\n    }\r\n    struct File {\r\n        uint256 postId;\r\n        string hash;\r\n        string fileType;\r\n    }\r\n    struct Post {\r\n        uint256 id;\r\n        string description;\r\n        User author;\r\n        uint256 postDate;\r\n    }\r\n    struct Like {\r\n        uint256 postId;\r\n        User user;\r\n    }\r\n\r\n    event UserCreated(\r\n        uint256 _userId,\r\n        string hash,\r\n        string username,\r\n        string description,\r\n        address payable author,\r\n        uint256 createDate\r\n    );\r\n    event UserUpdate(\r\n        uint256 _userId,\r\n        string hash,\r\n        string username,\r\n        string description,\r\n        address payable author\r\n    );\r\n\r\n    event PostCreated(\r\n        uint256 id,\r\n        string description,\r\n        User author,\r\n        uint256 postDate\r\n    );\r\n\r\n    event PostCommented(\r\n        uint256 id,\r\n        uint256 postId,\r\n        string comment,\r\n        User user,\r\n        uint256 commentDate\r\n    );\r\n    event PostLiked(\r\n        uint256 imageId,\r\n        User user\r\n    );\r\n    event PostUnLiked(\r\n        uint256 imageId,\r\n        User user\r\n    );\r\n    event NewFollowed(\r\n        uint256 _userId,\r\n        User _user\r\n    );\r\n    constructor() {\r\n        name = \"SocialNetwork\";\r\n    }\r\n    //Handling users\r\n    function createUser(\r\n        string memory _username,\r\n        string memory _profileImg,\r\n        string memory _description,\r\n        address _account\r\n    ) public {\r\n        for (uint i = 0; i < usersAddress.length; i++) {\r\n             require(keccak256(abi.encodePacked(_username)) != keccak256(abi.encodePacked(users[usersAddress[i]].username)), \"Username already exist, try another one\");\r\n             require(_account != users[usersAddress[i]].account, \"You already have an account\");\r\n        }\r\n        userCount++;\r\n        users[_account] = User(userCount, _profileImg, _username, _description, payable(_account), block.timestamp);\r\n        usersAddress.push(_account);\r\n        emit UserCreated(userCount, _profileImg, _username, _description, payable(_account), block.timestamp);\r\n    }\r\n    function userUpdate(\r\n        string memory _profileImgHash,\r\n        string memory _username,\r\n        string memory _description,\r\n        User memory author\r\n    ) public {\r\n        for (uint i = 0; i < usersAddress.length; i++) {\r\n            if (keccak256(abi.encodePacked(_username)) != keccak256(abi.encodePacked(author.username)) ){\r\n                require(keccak256(abi.encodePacked(_username)) != keccak256(abi.encodePacked(users[usersAddress[i]].username)), \"Username already exist, try another one\");\r\n            }\r\n        }\r\n        users[author.account] = User(author.id, _profileImgHash, _username, _description, author.account, block.timestamp);\r\n        emit UserUpdate(author.id, _profileImgHash, _username, _description, author.account);\r\n    }\r\n    function deleteUser(address _account) public {\r\n        require(msg.sender != address(0));\r\n        require(_account != address(0));\r\n        delete users[_account];\r\n        for (uint i = 0; i < usersAddress.length; i++){\r\n            if (usersAddress[i] == _account){\r\n                delete usersAddress[i];\r\n                break;\r\n            }\r\n        }\r\n    }\r\n    function getUsers() public view returns (User[] memory) {\r\n        User[] memory userList = new User[](usersAddress.length);\r\n        for (uint i = 0; i < usersAddress.length; i++) {\r\n            userList[i] = users[usersAddress[i]];\r\n        }\r\n        return userList;\r\n    }\r\n    function getUser(address userAccount) public view returns (User memory) {\r\n        return users[userAccount];\r\n    }\r\n    function getUserByUserName(string memory _username) public view returns (User memory) {\r\n        for (uint i = 0; i < usersAddress.length; i++){\r\n            if (keccak256(abi.encodePacked(_username)) == keccak256(abi.encodePacked(users[usersAddress[i]].username))) {\r\n                return users[usersAddress[i]];\r\n            }\r\n        }\r\n        return User(0,'','','', payable(address(0)),0);\r\n    }\r\n\r\n    //Handling posts\r\n    function createPost(\r\n        File[] memory _files,\r\n        string memory _description,\r\n        User memory _user\r\n    ) public payable{\r\n        // Make sure image description exists\r\n        require(bytes(_description).length > 0);\r\n        // Make sure uploader address exists\r\n        require(msg.sender != address(0));\r\n        require(payable(msg.sender) == _user.account, \"only current owner can update owner\");\r\n        // Increment image id\r\n        postCount++;\r\n        // Add Image to the contract\r\n        for (uint i = 0; i < _files.length; i ++){\r\n            addFileToPost(_files[i], postCount);\r\n        }\r\n        posts[postCount] = Post(postCount, _description, _user, block.timestamp);\r\n        // Trigger an event\r\n        emit PostCreated(\r\n            postCount,\r\n            _description,\r\n            _user,\r\n            block.timestamp\r\n        );\r\n    }\r\n    function addFileToPost(File memory _files, uint256 _postId) private {\r\n        require(bytes(_files.hash).length > 0);\r\n        require(bytes(_files.fileType). length > 0);\r\n        filesCount++;\r\n        _files.postId = _postId;\r\n        \r\n        files[_postId].push(_files);\r\n    }\r\n    function deletePost(uint256 id) public {\r\n        delete posts[id];\r\n    }\r\n    function commentPost(uint256 _id, string memory _comment, User memory user)\r\n        public\r\n        payable\r\n    {\r\n        // Make sure the id is valid\r\n        require(_id > 0 && _id <= postCount);\r\n       //Adding new comment\r\n        commentCount++;\r\n        comments[commentCount] = Comment(user, _comment, _id, commentCount, block.timestamp);\r\n        emit PostCommented(\r\n            commentCount,\r\n            _id,\r\n            _comment,\r\n            user,\r\n            block.timestamp\r\n        );\r\n    }\r\n    function deleteComment(uint256 id) public {\r\n        delete comments[id];\r\n    }\r\n    function getPostComments(uint256 postId) public view returns (Comment[] memory) {\r\n        require(postId > 0 && postId <= postCount);\r\n        Comment[] memory _cList = new Comment[](commentCount);\r\n        for (uint i = 0; i < commentCount; i++){\r\n            if (postId == comments[i+1].postId){\r\n                _cList[i]= comments[i+1];\r\n            }\r\n        }\r\n        return _cList;\r\n    }\r\n    function setLike(uint256 postId, User memory user) public payable {\r\n        require(postId > 0 && postId <= postCount);\r\n        Like[] memory _lList = getPostLikes(postId);\r\n        for (uint i = 0; i < _lList.length; i++){\r\n            require(keccak256(abi.encodePacked(user.account)) != keccak256(abi.encodePacked(_lList[i].user.account)));\r\n        }\r\n        likesCount++;\r\n        likes[likesCount] = Like(postId, user);\r\n        emit PostLiked(postId, user);\r\n    }\r\n    function unLike(uint256 postId, User memory user) public {\r\n        require(postId > 0 && postId <= postCount);\r\n        for (uint i = 0; i < likesCount; i++){\r\n            if (likes[i+1].postId == postId && keccak256(abi.encodePacked(user.account)) == keccak256(abi.encodePacked(likes[i+1].user.account)) ) {\r\n                delete likes[i+1];\r\n            }\r\n        }\r\n        emit PostUnLiked(postId, user);\r\n    }\r\n\r\n    function getPosts() public  view returns (AllPostInfo[] memory) {\r\n        AllPostInfo[] memory allPost = new AllPostInfo[](postCount);\r\n\r\n        for (uint i = 0; i < postCount; i++) {\r\n            allPost[i].post = posts[i+1];\r\n            allPost[i].comments = getPostComments(i+1);\r\n            allPost[i].likes = getPostLikes(i+1);\r\n            allPost[i].files = getPostFiles(i+1);\r\n        }\r\n        return allPost;\r\n    }\r\n    function getPost(uint256 postId) public view returns (AllPostInfo memory) {\r\n        AllPostInfo memory _post;\r\n        _post.post = posts[postId];\r\n        _post.comments = getPostComments(postId);\r\n        _post.likes = getPostLikes(postId);\r\n        _post.files = getPostFiles(postId);\r\n        return _post;\r\n    }\r\n    function getPostsByUserAddress(address _account) public view returns (AllPostInfo[] memory){\r\n        AllPostInfo[] memory allPost = new AllPostInfo[](postCount);\r\n        for (uint i = 0; i < postCount; i++) {\r\n            if (posts[i+1].author.account == _account){\r\n                allPost[i].post = posts[i+1];\r\n                allPost[i].comments = getPostComments(i+1);\r\n                allPost[i].likes = getPostLikes(i+1);\r\n                allPost[i].files = getPostFiles(i+1);\r\n            }\r\n        }\r\n        return allPost;\r\n    }\r\n    function getPostLikes(uint256 postId) public view returns (Like[] memory) {\r\n        Like[] memory postLikes = new Like[](likesCount);\r\n        for (uint i = 0; i < likesCount; i++){\r\n            if (postId == likes[i+1].postId){\r\n                postLikes[i]= likes[i+1];\r\n            }\r\n        }\r\n        return postLikes;\r\n    }\r\n    function getPostFiles(uint256 _postId) public view returns (File[] memory){\r\n        File[] memory postFiles = new File[](filesCount);\r\n            if (_postId == files[_postId][0].postId){\r\n                    postFiles = (files[_postId]);            \r\n        }\r\n        return postFiles;\r\n    }\r\n    function follow(uint256 _userId, User memory user) public payable {\r\n        require(_userId > 0 && _userId <= userCount);\r\n        Followed[] memory _lList = getUserFollowed(_userId);\r\n        for (uint i = 0; i < _lList.length; i++){\r\n            require(keccak256(abi.encodePacked(user.account)) != keccak256(abi.encodePacked(_lList[i]._followed.account)));\r\n        }\r\n        followedCount++;\r\n        followed[followedCount] = Followed(_userId, user);\r\n        emit NewFollowed(_userId, user);\r\n    }\r\n    function getUserFollowed(uint256 _userId) public view returns (Followed[] memory) {\r\n        require(_userId > 0 && _userId <= userCount);\r\n        Followed[] memory _followed = new Followed[](followedCount);\r\n        for (uint i = 0; i < _followed.length; i++){\r\n            if (_userId == followed[i+1].followerId){\r\n                _followed[i]= followed[i+1];\r\n            }\r\n        }\r\n        return _followed;\r\n    }\r\n    function getFollowedUsersPosts(uint256 _userId) public view returns (FollowedUserPosts[] memory){\r\n        require(_userId > 0 && _userId <= userCount);\r\n        FollowedUserPosts[] memory _allPosts = new FollowedUserPosts[](postCount);\r\n        Followed[] memory _followed = getUserFollowed(_userId);\r\n        for (uint i= 0; i < _followed.length; i++){\r\n            AllPostInfo[] memory _followedPost = getPostsByUserAddress(_followed[i]._followed.account);\r\n            _allPosts[i]._followedUsersPosts = _followedPost;\r\n        }\r\n        return _allPosts;\r\n    }\r\n}\r\n",
  "sourcePath": "C:\\Users\\Franklin Lucena\\Documents\\react_project\\nat_social\\src\\contracts\\SocialNetwork.sol",
  "compiler": {
    "name": "solc",
    "version": "0.8.10+commit.fc410830.Emscripten.clang"
  },
  "schemaVersion": "3.4.3",
  "updatedAt": "2021-12-10T15:56:00.211Z",
  "networkType": "ethereum",
  "devdoc": {
    "kind": "dev",
    "methods": {},
    "version": 1
  },
  "userdoc": {
    "kind": "user",
    "methods": {},
    "version": 1
  }
}