{
  "contractName": "SocialNetwork",
  "abi": [
    {
      "inputs": [],
      "stateMutability": "nonpayable",
      "type": "constructor"
    },
    {
      "anonymous": false,
      "inputs": [
        {
          "indexed": false,
          "internalType": "uint256",
          "name": "id",
          "type": "uint256"
        },
        {
          "indexed": false,
          "internalType": "uint256",
          "name": "postId",
          "type": "uint256"
        },
        {
          "indexed": false,
          "internalType": "string",
          "name": "comment",
          "type": "string"
        },
        {
          "components": [
            {
              "internalType": "string",
              "name": "image",
              "type": "string"
            },
            {
              "internalType": "string",
              "name": "username",
              "type": "string"
            },
            {
              "internalType": "address payable",
              "name": "author",
              "type": "address"
            }
          ],
          "indexed": false,
          "internalType": "struct SocialNetwork.User",
          "name": "user",
          "type": "tuple"
        }
      ],
      "name": "PostCommented",
      "type": "event"
    },
    {
      "anonymous": false,
      "inputs": [
        {
          "indexed": false,
          "internalType": "uint256",
          "name": "id",
          "type": "uint256"
        },
        {
          "indexed": false,
          "internalType": "string",
          "name": "description",
          "type": "string"
        },
        {
          "components": [
            {
              "internalType": "string",
              "name": "image",
              "type": "string"
            },
            {
              "internalType": "string",
              "name": "username",
              "type": "string"
            },
            {
              "internalType": "address payable",
              "name": "author",
              "type": "address"
            }
          ],
          "indexed": false,
          "internalType": "struct SocialNetwork.User",
          "name": "author",
          "type": "tuple"
        }
      ],
      "name": "PostCreated",
      "type": "event"
    },
    {
      "anonymous": false,
      "inputs": [
        {
          "indexed": false,
          "internalType": "uint256",
          "name": "imageId",
          "type": "uint256"
        },
        {
          "components": [
            {
              "internalType": "string",
              "name": "image",
              "type": "string"
            },
            {
              "internalType": "string",
              "name": "username",
              "type": "string"
            },
            {
              "internalType": "address payable",
              "name": "author",
              "type": "address"
            }
          ],
          "indexed": false,
          "internalType": "struct SocialNetwork.User",
          "name": "user",
          "type": "tuple"
        }
      ],
      "name": "PostLiked",
      "type": "event"
    },
    {
      "anonymous": false,
      "inputs": [
        {
          "indexed": false,
          "internalType": "uint256",
          "name": "imageId",
          "type": "uint256"
        },
        {
          "components": [
            {
              "internalType": "string",
              "name": "image",
              "type": "string"
            },
            {
              "internalType": "string",
              "name": "username",
              "type": "string"
            },
            {
              "internalType": "address payable",
              "name": "author",
              "type": "address"
            }
          ],
          "indexed": false,
          "internalType": "struct SocialNetwork.User",
          "name": "user",
          "type": "tuple"
        }
      ],
      "name": "PostUnLiked",
      "type": "event"
    },
    {
      "anonymous": false,
      "inputs": [
        {
          "indexed": false,
          "internalType": "string",
          "name": "hash",
          "type": "string"
        },
        {
          "indexed": false,
          "internalType": "string",
          "name": "username",
          "type": "string"
        },
        {
          "indexed": false,
          "internalType": "address payable",
          "name": "author",
          "type": "address"
        }
      ],
      "name": "UserCreated",
      "type": "event"
    },
    {
      "anonymous": false,
      "inputs": [
        {
          "indexed": false,
          "internalType": "string",
          "name": "hash",
          "type": "string"
        },
        {
          "indexed": false,
          "internalType": "string",
          "name": "username",
          "type": "string"
        },
        {
          "indexed": false,
          "internalType": "address payable",
          "name": "author",
          "type": "address"
        }
      ],
      "name": "UserUpdate",
      "type": "event"
    },
    {
      "inputs": [],
      "name": "name",
      "outputs": [
        {
          "internalType": "string",
          "name": "",
          "type": "string"
        }
      ],
      "stateMutability": "view",
      "type": "function",
      "constant": true
    },
    {
      "inputs": [
        {
          "internalType": "string",
          "name": "_username",
          "type": "string"
        },
        {
          "internalType": "string",
          "name": "_profileImg",
          "type": "string"
        },
        {
          "internalType": "address",
          "name": "_account",
          "type": "address"
        }
      ],
      "name": "createUser",
      "outputs": [],
      "stateMutability": "nonpayable",
      "type": "function"
    },
    {
      "inputs": [
        {
          "internalType": "string",
          "name": "_profileImgHash",
          "type": "string"
        },
        {
          "internalType": "string",
          "name": "_username",
          "type": "string"
        },
        {
          "components": [
            {
              "internalType": "string",
              "name": "image",
              "type": "string"
            },
            {
              "internalType": "string",
              "name": "username",
              "type": "string"
            },
            {
              "internalType": "address payable",
              "name": "author",
              "type": "address"
            }
          ],
          "internalType": "struct SocialNetwork.User",
          "name": "author",
          "type": "tuple"
        }
      ],
      "name": "userUpdate",
      "outputs": [],
      "stateMutability": "nonpayable",
      "type": "function"
    },
    {
      "inputs": [
        {
          "internalType": "address",
          "name": "_account",
          "type": "address"
        }
      ],
      "name": "deleteUser",
      "outputs": [],
      "stateMutability": "nonpayable",
      "type": "function"
    },
    {
      "inputs": [],
      "name": "getUsers",
      "outputs": [
        {
          "components": [
            {
              "internalType": "string",
              "name": "image",
              "type": "string"
            },
            {
              "internalType": "string",
              "name": "username",
              "type": "string"
            },
            {
              "internalType": "address payable",
              "name": "author",
              "type": "address"
            }
          ],
          "internalType": "struct SocialNetwork.User[]",
          "name": "",
          "type": "tuple[]"
        }
      ],
      "stateMutability": "view",
      "type": "function",
      "constant": true
    },
    {
      "inputs": [
        {
          "internalType": "address",
          "name": "userAccount",
          "type": "address"
        }
      ],
      "name": "getUser",
      "outputs": [
        {
          "components": [
            {
              "internalType": "string",
              "name": "image",
              "type": "string"
            },
            {
              "internalType": "string",
              "name": "username",
              "type": "string"
            },
            {
              "internalType": "address payable",
              "name": "author",
              "type": "address"
            }
          ],
          "internalType": "struct SocialNetwork.User",
          "name": "",
          "type": "tuple"
        }
      ],
      "stateMutability": "view",
      "type": "function",
      "constant": true
    },
    {
      "inputs": [
        {
          "internalType": "string",
          "name": "_username",
          "type": "string"
        }
      ],
      "name": "getUserByUserName",
      "outputs": [
        {
          "components": [
            {
              "internalType": "string",
              "name": "image",
              "type": "string"
            },
            {
              "internalType": "string",
              "name": "username",
              "type": "string"
            },
            {
              "internalType": "address payable",
              "name": "author",
              "type": "address"
            }
          ],
          "internalType": "struct SocialNetwork.User",
          "name": "",
          "type": "tuple"
        }
      ],
      "stateMutability": "view",
      "type": "function",
      "constant": true
    },
    {
      "inputs": [
        {
          "components": [
            {
              "internalType": "uint256",
              "name": "postId",
              "type": "uint256"
            },
            {
              "internalType": "string",
              "name": "hash",
              "type": "string"
            },
            {
              "internalType": "string",
              "name": "fileType",
              "type": "string"
            }
          ],
          "internalType": "struct SocialNetwork.File[]",
          "name": "_files",
          "type": "tuple[]"
        },
        {
          "internalType": "string",
          "name": "_description",
          "type": "string"
        },
        {
          "components": [
            {
              "internalType": "string",
              "name": "image",
              "type": "string"
            },
            {
              "internalType": "string",
              "name": "username",
              "type": "string"
            },
            {
              "internalType": "address payable",
              "name": "author",
              "type": "address"
            }
          ],
          "internalType": "struct SocialNetwork.User",
          "name": "_user",
          "type": "tuple"
        }
      ],
      "name": "createPost",
      "outputs": [],
      "stateMutability": "payable",
      "type": "function",
      "payable": true
    },
    {
      "inputs": [
        {
          "internalType": "uint256",
          "name": "id",
          "type": "uint256"
        }
      ],
      "name": "deletePost",
      "outputs": [],
      "stateMutability": "nonpayable",
      "type": "function"
    },
    {
      "inputs": [
        {
          "internalType": "uint256",
          "name": "_id",
          "type": "uint256"
        },
        {
          "internalType": "string",
          "name": "_comment",
          "type": "string"
        },
        {
          "components": [
            {
              "internalType": "string",
              "name": "image",
              "type": "string"
            },
            {
              "internalType": "string",
              "name": "username",
              "type": "string"
            },
            {
              "internalType": "address payable",
              "name": "author",
              "type": "address"
            }
          ],
          "internalType": "struct SocialNetwork.User",
          "name": "user",
          "type": "tuple"
        }
      ],
      "name": "commentPost",
      "outputs": [],
      "stateMutability": "payable",
      "type": "function",
      "payable": true
    },
    {
      "inputs": [
        {
          "internalType": "uint256",
          "name": "id",
          "type": "uint256"
        }
      ],
      "name": "deleteComment",
      "outputs": [],
      "stateMutability": "nonpayable",
      "type": "function"
    },
    {
      "inputs": [
        {
          "internalType": "uint256",
          "name": "postId",
          "type": "uint256"
        }
      ],
      "name": "getPostComments",
      "outputs": [
        {
          "components": [
            {
              "components": [
                {
                  "internalType": "string",
                  "name": "image",
                  "type": "string"
                },
                {
                  "internalType": "string",
                  "name": "username",
                  "type": "string"
                },
                {
                  "internalType": "address payable",
                  "name": "author",
                  "type": "address"
                }
              ],
              "internalType": "struct SocialNetwork.User",
              "name": "user",
              "type": "tuple"
            },
            {
              "internalType": "string",
              "name": "comment",
              "type": "string"
            },
            {
              "internalType": "uint256",
              "name": "postId",
              "type": "uint256"
            },
            {
              "internalType": "uint256",
              "name": "id",
              "type": "uint256"
            }
          ],
          "internalType": "struct SocialNetwork.Comment[]",
          "name": "",
          "type": "tuple[]"
        }
      ],
      "stateMutability": "view",
      "type": "function",
      "constant": true
    },
    {
      "inputs": [
        {
          "internalType": "uint256",
          "name": "postId",
          "type": "uint256"
        },
        {
          "components": [
            {
              "internalType": "string",
              "name": "image",
              "type": "string"
            },
            {
              "internalType": "string",
              "name": "username",
              "type": "string"
            },
            {
              "internalType": "address payable",
              "name": "author",
              "type": "address"
            }
          ],
          "internalType": "struct SocialNetwork.User",
          "name": "user",
          "type": "tuple"
        }
      ],
      "name": "setLike",
      "outputs": [],
      "stateMutability": "payable",
      "type": "function",
      "payable": true
    },
    {
      "inputs": [
        {
          "internalType": "uint256",
          "name": "postId",
          "type": "uint256"
        },
        {
          "components": [
            {
              "internalType": "string",
              "name": "image",
              "type": "string"
            },
            {
              "internalType": "string",
              "name": "username",
              "type": "string"
            },
            {
              "internalType": "address payable",
              "name": "author",
              "type": "address"
            }
          ],
          "internalType": "struct SocialNetwork.User",
          "name": "user",
          "type": "tuple"
        }
      ],
      "name": "unLike",
      "outputs": [],
      "stateMutability": "nonpayable",
      "type": "function"
    },
    {
      "inputs": [],
      "name": "getPosts",
      "outputs": [
        {
          "components": [
            {
              "components": [
                {
                  "internalType": "uint256",
                  "name": "id",
                  "type": "uint256"
                },
                {
                  "internalType": "string",
                  "name": "description",
                  "type": "string"
                },
                {
                  "components": [
                    {
                      "internalType": "string",
                      "name": "image",
                      "type": "string"
                    },
                    {
                      "internalType": "string",
                      "name": "username",
                      "type": "string"
                    },
                    {
                      "internalType": "address payable",
                      "name": "author",
                      "type": "address"
                    }
                  ],
                  "internalType": "struct SocialNetwork.User",
                  "name": "author",
                  "type": "tuple"
                }
              ],
              "internalType": "struct SocialNetwork.Post",
              "name": "post",
              "type": "tuple"
            },
            {
              "components": [
                {
                  "components": [
                    {
                      "internalType": "string",
                      "name": "image",
                      "type": "string"
                    },
                    {
                      "internalType": "string",
                      "name": "username",
                      "type": "string"
                    },
                    {
                      "internalType": "address payable",
                      "name": "author",
                      "type": "address"
                    }
                  ],
                  "internalType": "struct SocialNetwork.User",
                  "name": "user",
                  "type": "tuple"
                },
                {
                  "internalType": "string",
                  "name": "comment",
                  "type": "string"
                },
                {
                  "internalType": "uint256",
                  "name": "postId",
                  "type": "uint256"
                },
                {
                  "internalType": "uint256",
                  "name": "id",
                  "type": "uint256"
                }
              ],
              "internalType": "struct SocialNetwork.Comment[]",
              "name": "comments",
              "type": "tuple[]"
            },
            {
              "components": [
                {
                  "internalType": "uint256",
                  "name": "postId",
                  "type": "uint256"
                },
                {
                  "components": [
                    {
                      "internalType": "string",
                      "name": "image",
                      "type": "string"
                    },
                    {
                      "internalType": "string",
                      "name": "username",
                      "type": "string"
                    },
                    {
                      "internalType": "address payable",
                      "name": "author",
                      "type": "address"
                    }
                  ],
                  "internalType": "struct SocialNetwork.User",
                  "name": "user",
                  "type": "tuple"
                }
              ],
              "internalType": "struct SocialNetwork.Like[]",
              "name": "likes",
              "type": "tuple[]"
            },
            {
              "components": [
                {
                  "internalType": "uint256",
                  "name": "postId",
                  "type": "uint256"
                },
                {
                  "internalType": "string",
                  "name": "hash",
                  "type": "string"
                },
                {
                  "internalType": "string",
                  "name": "fileType",
                  "type": "string"
                }
              ],
              "internalType": "struct SocialNetwork.File[]",
              "name": "files",
              "type": "tuple[]"
            }
          ],
          "internalType": "struct SocialNetwork.AllPostInfo[]",
          "name": "",
          "type": "tuple[]"
        }
      ],
      "stateMutability": "view",
      "type": "function",
      "constant": true
    },
    {
      "inputs": [
        {
          "internalType": "uint256",
          "name": "postId",
          "type": "uint256"
        }
      ],
      "name": "getPost",
      "outputs": [
        {
          "components": [
            {
              "components": [
                {
                  "internalType": "uint256",
                  "name": "id",
                  "type": "uint256"
                },
                {
                  "internalType": "string",
                  "name": "description",
                  "type": "string"
                },
                {
                  "components": [
                    {
                      "internalType": "string",
                      "name": "image",
                      "type": "string"
                    },
                    {
                      "internalType": "string",
                      "name": "username",
                      "type": "string"
                    },
                    {
                      "internalType": "address payable",
                      "name": "author",
                      "type": "address"
                    }
                  ],
                  "internalType": "struct SocialNetwork.User",
                  "name": "author",
                  "type": "tuple"
                }
              ],
              "internalType": "struct SocialNetwork.Post",
              "name": "post",
              "type": "tuple"
            },
            {
              "components": [
                {
                  "components": [
                    {
                      "internalType": "string",
                      "name": "image",
                      "type": "string"
                    },
                    {
                      "internalType": "string",
                      "name": "username",
                      "type": "string"
                    },
                    {
                      "internalType": "address payable",
                      "name": "author",
                      "type": "address"
                    }
                  ],
                  "internalType": "struct SocialNetwork.User",
                  "name": "user",
                  "type": "tuple"
                },
                {
                  "internalType": "string",
                  "name": "comment",
                  "type": "string"
                },
                {
                  "internalType": "uint256",
                  "name": "postId",
                  "type": "uint256"
                },
                {
                  "internalType": "uint256",
                  "name": "id",
                  "type": "uint256"
                }
              ],
              "internalType": "struct SocialNetwork.Comment[]",
              "name": "comments",
              "type": "tuple[]"
            },
            {
              "components": [
                {
                  "internalType": "uint256",
                  "name": "postId",
                  "type": "uint256"
                },
                {
                  "components": [
                    {
                      "internalType": "string",
                      "name": "image",
                      "type": "string"
                    },
                    {
                      "internalType": "string",
                      "name": "username",
                      "type": "string"
                    },
                    {
                      "internalType": "address payable",
                      "name": "author",
                      "type": "address"
                    }
                  ],
                  "internalType": "struct SocialNetwork.User",
                  "name": "user",
                  "type": "tuple"
                }
              ],
              "internalType": "struct SocialNetwork.Like[]",
              "name": "likes",
              "type": "tuple[]"
            },
            {
              "components": [
                {
                  "internalType": "uint256",
                  "name": "postId",
                  "type": "uint256"
                },
                {
                  "internalType": "string",
                  "name": "hash",
                  "type": "string"
                },
                {
                  "internalType": "string",
                  "name": "fileType",
                  "type": "string"
                }
              ],
              "internalType": "struct SocialNetwork.File[]",
              "name": "files",
              "type": "tuple[]"
            }
          ],
          "internalType": "struct SocialNetwork.AllPostInfo",
          "name": "",
          "type": "tuple"
        }
      ],
      "stateMutability": "view",
      "type": "function",
      "constant": true
    },
    {
      "inputs": [
        {
          "internalType": "uint256",
          "name": "postId",
          "type": "uint256"
        }
      ],
      "name": "getPostLikes",
      "outputs": [
        {
          "components": [
            {
              "internalType": "uint256",
              "name": "postId",
              "type": "uint256"
            },
            {
              "components": [
                {
                  "internalType": "string",
                  "name": "image",
                  "type": "string"
                },
                {
                  "internalType": "string",
                  "name": "username",
                  "type": "string"
                },
                {
                  "internalType": "address payable",
                  "name": "author",
                  "type": "address"
                }
              ],
              "internalType": "struct SocialNetwork.User",
              "name": "user",
              "type": "tuple"
            }
          ],
          "internalType": "struct SocialNetwork.Like[]",
          "name": "",
          "type": "tuple[]"
        }
      ],
      "stateMutability": "view",
      "type": "function",
      "constant": true
    },
    {
      "inputs": [
        {
          "internalType": "uint256",
          "name": "_postId",
          "type": "uint256"
        }
      ],
      "name": "getPostFiles",
      "outputs": [
        {
          "components": [
            {
              "internalType": "uint256",
              "name": "postId",
              "type": "uint256"
            },
            {
              "internalType": "string",
              "name": "hash",
              "type": "string"
            },
            {
              "internalType": "string",
              "name": "fileType",
              "type": "string"
            }
          ],
          "internalType": "struct SocialNetwork.File[]",
          "name": "",
          "type": "tuple[]"
        }
      ],
      "stateMutability": "view",
      "type": "function",
      "constant": true
    }
  ],
  "bytecode": "0x608060405260006001556000600255600060035560006004553480156200002557600080fd5b506040518060400160405280600d81526020017f536f6369616c4e6574776f726b0000000000000000000000000000000000000081525060009080519060200190620000739291906200007a565b506200018f565b828054620000889062000159565b90600052602060002090601f016020900481019282620000ac5760008555620000f8565b82601f10620000c757805160ff1916838001178555620000f8565b82800160010185558215620000f8579182015b82811115620000f7578251825591602001919060010190620000da565b5b5090506200010791906200010b565b5090565b5b80821115620001265760008160009055506001016200010c565b5090565b7f4e487b7100000000000000000000000000000000000000000000000000000000600052602260045260246000fd5b600060028204905060018216806200017257607f821691505b602082108114156200018957620001886200012a565b5b50919050565b6145de806200019f6000396000f3fe6080604052600436106101085760003560e01c8063b0b2671d11610095578063cd6dd86811610064578063cd6dd8681461037f578063d524ff761461039b578063e110e43a146103d8578063e2e5345214610401578063f8cae5d41461041d57610108565b8063b0b2671d146102c0578063b5ca2541146102fd578063be6c898714610326578063cc8bc6ef1461036357610108565b806340731c24116100dc57806340731c24146101c957806341f3004a146102065780635c60f226146102315780636f77926b1461025a5780637d0b10261461029757610108565b8062ce8e3e1461010d57806306fdde0314610138578063094cd5ee146101635780630cc8422f1461018c575b600080fd5b34801561011957600080fd5b50610122610446565b60405161012f919061301b565b60405180910390f35b34801561014457600080fd5b5061014d6106f0565b60405161015a9190613087565b60405180910390f35b34801561016f57600080fd5b5061018a600480360381019061018591906130f3565b61077e565b005b34801561019857600080fd5b506101b360048036038101906101ae91906130f3565b6107fd565b6040516101c09190613248565b60405180910390f35b3480156101d557600080fd5b506101f060048036038101906101eb91906130f3565b610a3b565b6040516101fd91906135ea565b60405180910390f35b34801561021257600080fd5b5061021b610cd7565b6040516102289190613746565b60405180910390f35b34801561023d57600080fd5b50610258600480360381019061025391906137a6565b611076565b005b34801561026657600080fd5b50610281600480360381019061027c91906137a6565b611252565b60405161028e919061382a565b60405180910390f35b3480156102a357600080fd5b506102be60048036038101906102b991906130f3565b611425565b005b3480156102cc57600080fd5b506102e760048036038101906102e291906130f3565b6114ac565b6040516102f491906138d2565b60405180910390f35b34801561030957600080fd5b50610324600480360381019061031f9190613a29565b61173d565b005b34801561033257600080fd5b5061034d60048036038101906103489190613ab4565b611b15565b60405161035a919061382a565b60405180910390f35b61037d60048036038101906103789190613bcf565b611e76565b005b61039960048036038101906103949190613c2b565b612056565b005b3480156103a757600080fd5b506103c260048036038101906103bd91906130f3565b6121c5565b6040516103cf9190613d3c565b60405180910390f35b3480156103e457600080fd5b506103ff60048036038101906103fa9190613d5e565b61250d565b005b61041b60048036038101906104169190613f87565b61277f565b005b34801561042957600080fd5b50610444600480360381019061043f9190613bcf565b6129c1565b005b6060600060058054905067ffffffffffffffff811115610469576104686138fe565b5b6040519080825280602002602001820160405280156104a257816020015b61048f612c4a565b8152602001906001900390816104875790505b50905060005b6005805490508110156106e85760076000600583815481106104cd576104cc61402e565b5b9060005260206000200160009054906101000a900473ffffffffffffffffffffffffffffffffffffffff1673ffffffffffffffffffffffffffffffffffffffff1673ffffffffffffffffffffffffffffffffffffffff16815260200190815260200160002060405180606001604052908160008201805461054d9061408c565b80601f01602080910402602001604051908101604052809291908181526020018280546105799061408c565b80156105c65780601f1061059b576101008083540402835291602001916105c6565b820191906000526020600020905b8154815290600101906020018083116105a957829003601f168201915b505050505081526020016001820180546105df9061408c565b80601f016020809104026020016040519081016040528092919081815260200182805461060b9061408c565b80156106585780601f1061062d57610100808354040283529160200191610658565b820191906000526020600020905b81548152906001019060200180831161063b57829003601f168201915b505050505081526020016002820160009054906101000a900473ffffffffffffffffffffffffffffffffffffffff1673ffffffffffffffffffffffffffffffffffffffff1673ffffffffffffffffffffffffffffffffffffffff16815250508282815181106106ca576106c961402e565b5b602002602001018190525080806106e0906140ed565b9150506104a8565b508091505090565b600080546106fd9061408c565b80601f01602080910402602001604051908101604052809291908181526020018280546107299061408c565b80156107765780601f1061074b57610100808354040283529160200191610776565b820191906000526020600020905b81548152906001019060200180831161075957829003601f168201915b505050505081565b600660008281526020019081526020016000206000808201600090556001820160006107aa9190612c81565b60028201600080820160006107bf9190612c81565b6001820160006107cf9190612c81565b6002820160006101000a81549073ffffffffffffffffffffffffffffffffffffffff02191690555050505050565b6060600060045467ffffffffffffffff81111561081d5761081c6138fe565b5b60405190808252806020026020018201604052801561085657816020015b610843612cc1565b81526020019060019003908161083b5790505b509050600a600084815260200190815260200160002060008154811061087f5761087e61402e565b5b906000526020600020906003020160000154831415610a3257600a6000848152602001908152602001600020805480602002602001604051908101604052809291908181526020016000905b82821015610a2b5783829060005260206000209060030201604051806060016040529081600082015481526020016001820180546109089061408c565b80601f01602080910402602001604051908101604052809291908181526020018280546109349061408c565b80156109815780601f1061095657610100808354040283529160200191610981565b820191906000526020600020905b81548152906001019060200180831161096457829003601f168201915b5050505050815260200160028201805461099a9061408c565b80601f01602080910402602001604051908101604052809291908181526020018280546109c69061408c565b8015610a135780601f106109e857610100808354040283529160200191610a13565b820191906000526020600020905b8154815290600101906020018083116109f657829003601f168201915b505050505081525050815260200190600101906108cb565b5050505090505b80915050919050565b610a43612ce2565b610a4b612ce2565b6006600084815260200190815260200160002060405180606001604052908160008201548152602001600182018054610a839061408c565b80601f0160208091040260200160405190810160405280929190818152602001828054610aaf9061408c565b8015610afc5780601f10610ad157610100808354040283529160200191610afc565b820191906000526020600020905b815481529060010190602001808311610adf57829003601f168201915b5050505050815260200160028201604051806060016040529081600082018054610b259061408c565b80601f0160208091040260200160405190810160405280929190818152602001828054610b519061408c565b8015610b9e5780601f10610b7357610100808354040283529160200191610b9e565b820191906000526020600020905b815481529060010190602001808311610b8157829003601f168201915b50505050508152602001600182018054610bb79061408c565b80601f0160208091040260200160405190810160405280929190818152602001828054610be39061408c565b8015610c305780601f10610c0557610100808354040283529160200191610c30565b820191906000526020600020905b815481529060010190602001808311610c1357829003601f168201915b505050505081526020016002820160009054906101000a900473ffffffffffffffffffffffffffffffffffffffff1673ffffffffffffffffffffffffffffffffffffffff1673ffffffffffffffffffffffffffffffffffffffff1681525050815250508160000181905250610ca4836121c5565b8160200181905250610cb5836114ac565b8160400181905250610cc6836107fd565b816060018190525080915050919050565b6060600060015467ffffffffffffffff811115610cf757610cf66138fe565b5b604051908082528060200260200182016040528015610d3057816020015b610d1d612ce2565b815260200190600190039081610d155790505b50905060005b60015481101561106e5760066000600183610d519190614136565b815260200190815260200160002060405180606001604052908160008201548152602001600182018054610d849061408c565b80601f0160208091040260200160405190810160405280929190818152602001828054610db09061408c565b8015610dfd5780601f10610dd257610100808354040283529160200191610dfd565b820191906000526020600020905b815481529060010190602001808311610de057829003601f168201915b5050505050815260200160028201604051806060016040529081600082018054610e269061408c565b80601f0160208091040260200160405190810160405280929190818152602001828054610e529061408c565b8015610e9f5780601f10610e7457610100808354040283529160200191610e9f565b820191906000526020600020905b815481529060010190602001808311610e8257829003601f168201915b50505050508152602001600182018054610eb89061408c565b80601f0160208091040260200160405190810160405280929190818152602001828054610ee49061408c565b8015610f315780601f10610f0657610100808354040283529160200191610f31565b820191906000526020600020905b815481529060010190602001808311610f1457829003601f168201915b505050505081526020016002820160009054906101000a900473ffffffffffffffffffffffffffffffffffffffff1673ffffffffffffffffffffffffffffffffffffffff1673ffffffffffffffffffffffffffffffffffffffff168152505081525050828281518110610fa757610fa661402e565b5b602002602001015160000181905250610fcb600182610fc69190614136565b6121c5565b828281518110610fde57610fdd61402e565b5b602002602001015160200181905250611002600182610ffd9190614136565b6114ac565b8282815181106110155761101461402e565b5b6020026020010151604001819052506110396001826110349190614136565b6107fd565b82828151811061104c5761104b61402e565b5b6020026020010151606001819052508080611066906140ed565b915050610d36565b508091505090565b600073ffffffffffffffffffffffffffffffffffffffff163373ffffffffffffffffffffffffffffffffffffffff1614156110b057600080fd5b600073ffffffffffffffffffffffffffffffffffffffff168173ffffffffffffffffffffffffffffffffffffffff1614156110ea57600080fd5b600760008273ffffffffffffffffffffffffffffffffffffffff1673ffffffffffffffffffffffffffffffffffffffff1681526020019081526020016000206000808201600061113a9190612c81565b60018201600061114a9190612c81565b6002820160006101000a81549073ffffffffffffffffffffffffffffffffffffffff0219169055505060005b60058054905081101561124e578173ffffffffffffffffffffffffffffffffffffffff16600582815481106111ae576111ad61402e565b5b9060005260206000200160009054906101000a900473ffffffffffffffffffffffffffffffffffffffff1673ffffffffffffffffffffffffffffffffffffffff16141561123b57600581815481106112095761120861402e565b5b9060005260206000200160006101000a81549073ffffffffffffffffffffffffffffffffffffffff021916905561124e565b8080611246906140ed565b915050611176565b5050565b61125a612c4a565b600760008373ffffffffffffffffffffffffffffffffffffffff1673ffffffffffffffffffffffffffffffffffffffff1681526020019081526020016000206040518060600160405290816000820180546112b49061408c565b80601f01602080910402602001604051908101604052809291908181526020018280546112e09061408c565b801561132d5780601f106113025761010080835404028352916020019161132d565b820191906000526020600020905b81548152906001019060200180831161131057829003601f168201915b505050505081526020016001820180546113469061408c565b80601f01602080910402602001604051908101604052809291908181526020018280546113729061408c565b80156113bf5780601f10611394576101008083540402835291602001916113bf565b820191906000526020600020905b8154815290600101906020018083116113a257829003601f168201915b505050505081526020016002820160009054906101000a900473ffffffffffffffffffffffffffffffffffffffff1673ffffffffffffffffffffffffffffffffffffffff1673ffffffffffffffffffffffffffffffffffffffff16815250509050919050565b6009600082815260200190815260200160002060008082016000808201600061144e9190612c81565b60018201600061145e9190612c81565b6002820160006101000a81549073ffffffffffffffffffffffffffffffffffffffff021916905550506003820160006114979190612c81565b60048201600090556005820160009055505050565b6060600060025467ffffffffffffffff8111156114cc576114cb6138fe565b5b60405190808252806020026020018201604052801561150557816020015b6114f2612d10565b8152602001906001900390816114ea5790505b50905060005b60025481101561173357600860006001836115269190614136565b81526020019081526020016000206000015484141561172057600860006001836115509190614136565b815260200190815260200160002060405180604001604052908160008201548152602001600182016040518060600160405290816000820180546115939061408c565b80601f01602080910402602001604051908101604052809291908181526020018280546115bf9061408c565b801561160c5780601f106115e15761010080835404028352916020019161160c565b820191906000526020600020905b8154815290600101906020018083116115ef57829003601f168201915b505050505081526020016001820180546116259061408c565b80601f01602080910402602001604051908101604052809291908181526020018280546116519061408c565b801561169e5780601f106116735761010080835404028352916020019161169e565b820191906000526020600020905b81548152906001019060200180831161168157829003601f168201915b505050505081526020016002820160009054906101000a900473ffffffffffffffffffffffffffffffffffffffff1673ffffffffffffffffffffffffffffffffffffffff1673ffffffffffffffffffffffffffffffffffffffff1681525050815250508282815181106117145761171361402e565b5b60200260200101819052505b808061172b906140ed565b91505061150b565b5080915050919050565b60005b60058054905081101561197d5760076000600583815481106117655761176461402e565b5b9060005260206000200160009054906101000a900473ffffffffffffffffffffffffffffffffffffffff1673ffffffffffffffffffffffffffffffffffffffff1673ffffffffffffffffffffffffffffffffffffffff1681526020019081526020016000206001016040516020016117dd919061422b565b60405160208183030381529060405280519060200120846040516020016118049190614273565b60405160208183030381529060405280519060200120141561185b576040517f08c379a0000000000000000000000000000000000000000000000000000000008152600401611852906142fc565b60405180910390fd5b60076000600583815481106118735761187261402e565b5b9060005260206000200160009054906101000a900473ffffffffffffffffffffffffffffffffffffffff1673ffffffffffffffffffffffffffffffffffffffff1673ffffffffffffffffffffffffffffffffffffffff16815260200190815260200160002060020160009054906101000a900473ffffffffffffffffffffffffffffffffffffffff1673ffffffffffffffffffffffffffffffffffffffff168273ffffffffffffffffffffffffffffffffffffffff16141561196a576040517f08c379a000000000000000000000000000000000000000000000000000000000815260040161196190614368565b60405180910390fd5b8080611975906140ed565b915050611740565b5060405180606001604052808381526020018481526020018273ffffffffffffffffffffffffffffffffffffffff16815250600760008373ffffffffffffffffffffffffffffffffffffffff1673ffffffffffffffffffffffffffffffffffffffff1681526020019081526020016000206000820151816000019080519060200190611a0a929190612d30565b506020820151816001019080519060200190611a27929190612d30565b5060408201518160020160006101000a81548173ffffffffffffffffffffffffffffffffffffffff021916908373ffffffffffffffffffffffffffffffffffffffff1602179055509050506005819080600181540180825580915050600190039060005260206000200160009091909190916101000a81548173ffffffffffffffffffffffffffffffffffffffff021916908373ffffffffffffffffffffffffffffffffffffffff1602179055507ff8dd90a0a9a50696bb466ea2ba7b33b470aa5994f5d1d613d94d3eac8129d78d828483604051611b0893929190614397565b60405180910390a1505050565b611b1d612c4a565b60005b600580549050811015611e1d576007600060058381548110611b4557611b4461402e565b5b9060005260206000200160009054906101000a900473ffffffffffffffffffffffffffffffffffffffff1673ffffffffffffffffffffffffffffffffffffffff1673ffffffffffffffffffffffffffffffffffffffff168152602001908152602001600020600101604051602001611bbd919061422b565b6040516020818303038152906040528051906020012083604051602001611be49190614273565b604051602081830303815290604052805190602001201415611e0a576007600060058381548110611c1857611c1761402e565b5b9060005260206000200160009054906101000a900473ffffffffffffffffffffffffffffffffffffffff1673ffffffffffffffffffffffffffffffffffffffff1673ffffffffffffffffffffffffffffffffffffffff168152602001908152602001600020604051806060016040529081600082018054611c989061408c565b80601f0160208091040260200160405190810160405280929190818152602001828054611cc49061408c565b8015611d115780601f10611ce657610100808354040283529160200191611d11565b820191906000526020600020905b815481529060010190602001808311611cf457829003601f168201915b50505050508152602001600182018054611d2a9061408c565b80601f0160208091040260200160405190810160405280929190818152602001828054611d569061408c565b8015611da35780601f10611d7857610100808354040283529160200191611da3565b820191906000526020600020905b815481529060010190602001808311611d8657829003601f168201915b505050505081526020016002820160009054906101000a900473ffffffffffffffffffffffffffffffffffffffff1673ffffffffffffffffffffffffffffffffffffffff1673ffffffffffffffffffffffffffffffffffffffff1681525050915050611e71565b8080611e15906140ed565b915050611b20565b506040518060600160405280604051806020016040528060008152508152602001604051806020016040528060008152508152602001600073ffffffffffffffffffffffffffffffffffffffff1681525090505b919050565b600082118015611e8857506001548211155b611e9157600080fd5b6000611e9c836114ac565b905060005b8151811015611f3c57818181518110611ebd57611ebc61402e565b5b60200260200101516020015160400151604051602001611edd9190614424565b604051602081830303815290604052805190602001208360400151604051602001611f089190614424565b604051602081830303815290604052805190602001201415611f2957600080fd5b8080611f34906140ed565b915050611ea1565b5060026000815480929190611f50906140ed565b9190505550604051806040016040528084815260200183815250600860006002548152602001908152602001600020600082015181600001556020820151816001016000820151816000019080519060200190611fae929190612d30565b506020820151816001019080519060200190611fcb929190612d30565b5060408201518160020160006101000a81548173ffffffffffffffffffffffffffffffffffffffff021916908373ffffffffffffffffffffffffffffffffffffffff16021790555050509050507fd6b27d78c4bdf153a3c6e009eb34abd68152a0802c0b8a42e0d6356911bd7460838360405161204992919061444e565b60405180910390a1505050565b60008311801561206857506001548311155b61207157600080fd5b60036000815480929190612084906140ed565b9190505550604051806080016040528082815260200183815260200184815260200160035481525060096000600354815260200190815260200160002060008201518160000160008201518160000190805190602001906120e6929190612d30565b506020820151816001019080519060200190612103929190612d30565b5060408201518160020160006101000a81548173ffffffffffffffffffffffffffffffffffffffff021916908373ffffffffffffffffffffffffffffffffffffffff16021790555050506020820151816003019080519060200190612169929190612d30565b5060408201518160040155606082015181600501559050507f51191cf670aaa08ec64bdcbfeb9e9d798c1216634fd5b86f5362b6cbd48e9c376003548484846040516121b8949392919061447e565b60405180910390a1505050565b60606000821180156121d957506001548211155b6121e257600080fd5b600060035467ffffffffffffffff811115612200576121ff6138fe565b5b60405190808252806020026020018201604052801561223957816020015b612226612db6565b81526020019060019003908161221e5790505b50905060005b600354811015612503576009600060018361225a9190614136565b8152602001908152602001600020600401548414156124f057600960006001836122849190614136565b8152602001908152602001600020604051806080016040529081600082016040518060600160405290816000820180546122bd9061408c565b80601f01602080910402602001604051908101604052809291908181526020018280546122e99061408c565b80156123365780601f1061230b57610100808354040283529160200191612336565b820191906000526020600020905b81548152906001019060200180831161231957829003601f168201915b5050505050815260200160018201805461234f9061408c565b80601f016020809104026020016040519081016040528092919081815260200182805461237b9061408c565b80156123c85780601f1061239d576101008083540402835291602001916123c8565b820191906000526020600020905b8154815290600101906020018083116123ab57829003601f168201915b505050505081526020016002820160009054906101000a900473ffffffffffffffffffffffffffffffffffffffff1673ffffffffffffffffffffffffffffffffffffffff1673ffffffffffffffffffffffffffffffffffffffff1681525050815260200160038201805461243b9061408c565b80601f01602080910402602001604051908101604052809291908181526020018280546124679061408c565b80156124b45780601f10612489576101008083540402835291602001916124b4565b820191906000526020600020905b81548152906001019060200180831161249757829003601f168201915b50505050508152602001600482015481526020016005820154815250508282815181106124e4576124e361402e565b5b60200260200101819052505b80806124fb906140ed565b91505061223f565b5080915050919050565b60005b60058054905081101561263e5760076000600583815481106125355761253461402e565b5b9060005260206000200160009054906101000a900473ffffffffffffffffffffffffffffffffffffffff1673ffffffffffffffffffffffffffffffffffffffff1673ffffffffffffffffffffffffffffffffffffffff1681526020019081526020016000206001016040516020016125ad919061422b565b60405160208183030381529060405280519060200120836040516020016125d49190614273565b60405160208183030381529060405280519060200120141561262b576040517f08c379a0000000000000000000000000000000000000000000000000000000008152600401612622906142fc565b60405180910390fd5b8080612636906140ed565b915050612510565b506040518060600160405280848152602001838152602001826040015173ffffffffffffffffffffffffffffffffffffffff1681525060076000836040015173ffffffffffffffffffffffffffffffffffffffff1673ffffffffffffffffffffffffffffffffffffffff16815260200190815260200160002060008201518160000190805190602001906126d3929190612d30565b5060208201518160010190805190602001906126f0929190612d30565b5060408201518160020160006101000a81548173ffffffffffffffffffffffffffffffffffffffff021916908373ffffffffffffffffffffffffffffffffffffffff1602179055509050507f9b91c94cf049309265f3b239d551f5110ef1e2d0eec4d967cf9d7420775d4ba88383836040015160405161277293929190614397565b60405180910390a1505050565b600082511161278d57600080fd5b600073ffffffffffffffffffffffffffffffffffffffff163373ffffffffffffffffffffffffffffffffffffffff1614156127c757600080fd5b806040015173ffffffffffffffffffffffffffffffffffffffff163373ffffffffffffffffffffffffffffffffffffffff1614612839576040517f08c379a000000000000000000000000000000000000000000000000000000000815260040161283090614543565b60405180910390fd5b6001600081548092919061284c906140ed565b919050555060005b8351811015612896576128838482815181106128735761287261402e565b5b6020026020010151600154612b7d565b808061288e906140ed565b915050612854565b5060405180606001604052806001548152602001838152602001828152506006600060015481526020019081526020016000206000820151816000015560208201518160010190805190602001906128ef929190612d30565b506040820151816002016000820151816000019080519060200190612915929190612d30565b506020820151816001019080519060200190612932929190612d30565b5060408201518160020160006101000a81548173ffffffffffffffffffffffffffffffffffffffff021916908373ffffffffffffffffffffffffffffffffffffffff16021790555050509050507f7c8011b58e92664d3d0c60361088aa2a82dd539c05845b1c06eb63812c3a5cf360015483836040516129b493929190614563565b60405180910390a1505050565b6000821180156129d357506001548211155b6129dc57600080fd5b60005b600254811015612b3f5782600860006001846129fb9190614136565b815260200190815260200160002060000154148015612aae575060086000600183612a269190614136565b815260200190815260200160002060010160020160009054906101000a900473ffffffffffffffffffffffffffffffffffffffff16604051602001612a6b9190614424565b604051602081830303815290604052805190602001208260400151604051602001612a969190614424565b60405160208183030381529060405280519060200120145b15612b2c5760086000600183612ac49190614136565b81526020019081526020016000206000808201600090556001820160008082016000612af09190612c81565b600182016000612b009190612c81565b6002820160006101000a81549073ffffffffffffffffffffffffffffffffffffffff0219169055505050505b8080612b37906140ed565b9150506129df565b507f1faffec602a4237c33577089e4cf992d4232a0d897eb22ed0d32c66a185fc97f8282604051612b7192919061444e565b60405180910390a15050565b600082602001515111612b8f57600080fd5b600082604001515111612ba157600080fd5b60046000815480929190612bb4906140ed565b919050555080826000018181525050600a6000828152602001908152602001600020829080600181540180825580915050600190039060005260206000209060030201600090919091909150600082015181600001556020820151816001019080519060200190612c26929190612d30565b506040820151816002019080519060200190612c43929190612d30565b5050505050565b60405180606001604052806060815260200160608152602001600073ffffffffffffffffffffffffffffffffffffffff1681525090565b508054612c8d9061408c565b6000825580601f10612c9f5750612cbe565b601f016020900490600052602060002090810190612cbd9190612de4565b5b50565b60405180606001604052806000815260200160608152602001606081525090565b6040518060800160405280612cf5612e01565b81526020016060815260200160608152602001606081525090565b604051806040016040528060008152602001612d2a612c4a565b81525090565b828054612d3c9061408c565b90600052602060002090601f016020900481019282612d5e5760008555612da5565b82601f10612d7757805160ff1916838001178555612da5565b82800160010185558215612da5579182015b82811115612da4578251825591602001919060010190612d89565b5b509050612db29190612de4565b5090565b6040518060800160405280612dc9612c4a565b81526020016060815260200160008152602001600081525090565b5b80821115612dfd576000816000905550600101612de5565b5090565b60405180606001604052806000815260200160608152602001612e22612c4a565b81525090565b600081519050919050565b600082825260208201905092915050565b6000819050602082019050919050565b600081519050919050565b600082825260208201905092915050565b60005b83811015612e8e578082015181840152602081019050612e73565b83811115612e9d576000848401525b50505050565b6000601f19601f8301169050919050565b6000612ebf82612e54565b612ec98185612e5f565b9350612ed9818560208601612e70565b612ee281612ea3565b840191505092915050565b600073ffffffffffffffffffffffffffffffffffffffff82169050919050565b6000612f1882612eed565b9050919050565b612f2881612f0d565b82525050565b60006060830160008301518482036000860152612f4b8282612eb4565b91505060208301518482036020860152612f658282612eb4565b9150506040830151612f7a6040860182612f1f565b508091505092915050565b6000612f918383612f2e565b905092915050565b6000602082019050919050565b6000612fb182612e28565b612fbb8185612e33565b935083602082028501612fcd85612e44565b8060005b858110156130095784840389528151612fea8582612f85565b9450612ff583612f99565b925060208a01995050600181019050612fd1565b50829750879550505050505092915050565b600060208201905081810360008301526130358184612fa6565b905092915050565b600082825260208201905092915050565b600061305982612e54565b613063818561303d565b9350613073818560208601612e70565b61307c81612ea3565b840191505092915050565b600060208201905081810360008301526130a1818461304e565b905092915050565b6000604051905090565b600080fd5b600080fd5b6000819050919050565b6130d0816130bd565b81146130db57600080fd5b50565b6000813590506130ed816130c7565b92915050565b600060208284031215613109576131086130b3565b5b6000613117848285016130de565b91505092915050565b600081519050919050565b600082825260208201905092915050565b6000819050602082019050919050565b613155816130bd565b82525050565b6000606083016000830151613173600086018261314c565b506020830151848203602086015261318b8282612eb4565b915050604083015184820360408601526131a58282612eb4565b9150508091505092915050565b60006131be838361315b565b905092915050565b6000602082019050919050565b60006131de82613120565b6131e8818561312b565b9350836020820285016131fa8561313c565b8060005b85811015613236578484038952815161321785826131b2565b9450613222836131c6565b925060208a019950506001810190506131fe565b50829750879550505050505092915050565b6000602082019050818103600083015261326281846131d3565b905092915050565b6000606083016000830151613282600086018261314c565b506020830151848203602086015261329a8282612eb4565b915050604083015184820360408601526132b48282612f2e565b9150508091505092915050565b600081519050919050565b600082825260208201905092915050565b6000819050602082019050919050565b6000608083016000830151848203600086015261330a8282612f2e565b915050602083015184820360208601526133248282612eb4565b9150506040830151613339604086018261314c565b50606083015161334c606086018261314c565b508091505092915050565b600061336383836132ed565b905092915050565b6000602082019050919050565b6000613383826132c1565b61338d81856132cc565b93508360208202850161339f856132dd565b8060005b858110156133db57848403895281516133bc8582613357565b94506133c78361336b565b925060208a019950506001810190506133a3565b50829750879550505050505092915050565b600081519050919050565b600082825260208201905092915050565b6000819050602082019050919050565b6000604083016000830151613431600086018261314c565b50602083015184820360208601526134498282612f2e565b9150508091505092915050565b60006134628383613419565b905092915050565b6000602082019050919050565b6000613482826133ed565b61348c81856133f8565b93508360208202850161349e85613409565b8060005b858110156134da57848403895281516134bb8582613456565b94506134c68361346a565b925060208a019950506001810190506134a2565b50829750879550505050505092915050565b600082825260208201905092915050565b600061350882613120565b61351281856134ec565b9350836020820285016135248561313c565b8060005b85811015613560578484038952815161354185826131b2565b945061354c836131c6565b925060208a01995050600181019050613528565b50829750879550505050505092915050565b6000608083016000830151848203600086015261358f828261326a565b915050602083015184820360208601526135a98282613378565b915050604083015184820360408601526135c38282613477565b915050606083015184820360608601526135dd82826134fd565b9150508091505092915050565b600060208201905081810360008301526136048184613572565b905092915050565b600081519050919050565b600082825260208201905092915050565b6000819050602082019050919050565b60006080830160008301518482036000860152613655828261326a565b9150506020830151848203602086015261366f8282613378565b915050604083015184820360408601526136898282613477565b915050606083015184820360608601526136a382826134fd565b9150508091505092915050565b60006136bc8383613638565b905092915050565b6000602082019050919050565b60006136dc8261360c565b6136e68185613617565b9350836020820285016136f885613628565b8060005b85811015613734578484038952815161371585826136b0565b9450613720836136c4565b925060208a019950506001810190506136fc565b50829750879550505050505092915050565b6000602082019050818103600083015261376081846136d1565b905092915050565b600061377382612eed565b9050919050565b61378381613768565b811461378e57600080fd5b50565b6000813590506137a08161377a565b92915050565b6000602082840312156137bc576137bb6130b3565b5b60006137ca84828501613791565b91505092915050565b600060608301600083015184820360008601526137f08282612eb4565b9150506020830151848203602086015261380a8282612eb4565b915050604083015161381f6040860182612f1f565b508091505092915050565b6000602082019050818103600083015261384481846137d3565b905092915050565b600082825260208201905092915050565b6000613868826133ed565b613872818561384c565b93508360208202850161388485613409565b8060005b858110156138c057848403895281516138a18582613456565b94506138ac8361346a565b925060208a01995050600181019050613888565b50829750879550505050505092915050565b600060208201905081810360008301526138ec818461385d565b905092915050565b600080fd5b600080fd5b7f4e487b7100000000000000000000000000000000000000000000000000000000600052604160045260246000fd5b61393682612ea3565b810181811067ffffffffffffffff82111715613955576139546138fe565b5b80604052505050565b60006139686130a9565b9050613974828261392d565b919050565b600067ffffffffffffffff821115613994576139936138fe565b5b61399d82612ea3565b9050602081019050919050565b82818337600083830152505050565b60006139cc6139c784613979565b61395e565b9050828152602081018484840111156139e8576139e76138f9565b5b6139f38482856139aa565b509392505050565b600082601f830112613a1057613a0f6138f4565b5b8135613a208482602086016139b9565b91505092915050565b600080600060608486031215613a4257613a416130b3565b5b600084013567ffffffffffffffff811115613a6057613a5f6130b8565b5b613a6c868287016139fb565b935050602084013567ffffffffffffffff811115613a8d57613a8c6130b8565b5b613a99868287016139fb565b9250506040613aaa86828701613791565b9150509250925092565b600060208284031215613aca57613ac96130b3565b5b600082013567ffffffffffffffff811115613ae857613ae76130b8565b5b613af4848285016139fb565b91505092915050565b600080fd5b600080fd5b613b1081612f0d565b8114613b1b57600080fd5b50565b600081359050613b2d81613b07565b92915050565b600060608284031215613b4957613b48613afd565b5b613b53606061395e565b9050600082013567ffffffffffffffff811115613b7357613b72613b02565b5b613b7f848285016139fb565b600083015250602082013567ffffffffffffffff811115613ba357613ba2613b02565b5b613baf848285016139fb565b6020830152506040613bc384828501613b1e565b60408301525092915050565b60008060408385031215613be657613be56130b3565b5b6000613bf4858286016130de565b925050602083013567ffffffffffffffff811115613c1557613c146130b8565b5b613c2185828601613b33565b9150509250929050565b600080600060608486031215613c4457613c436130b3565b5b6000613c52868287016130de565b935050602084013567ffffffffffffffff811115613c7357613c726130b8565b5b613c7f868287016139fb565b925050604084013567ffffffffffffffff811115613ca057613c9f6130b8565b5b613cac86828701613b33565b9150509250925092565b600082825260208201905092915050565b6000613cd2826132c1565b613cdc8185613cb6565b935083602082028501613cee856132dd565b8060005b85811015613d2a5784840389528151613d0b8582613357565b9450613d168361336b565b925060208a01995050600181019050613cf2565b50829750879550505050505092915050565b60006020820190508181036000830152613d568184613cc7565b905092915050565b600080600060608486031215613d7757613d766130b3565b5b600084013567ffffffffffffffff811115613d9557613d946130b8565b5b613da1868287016139fb565b935050602084013567ffffffffffffffff811115613dc257613dc16130b8565b5b613dce868287016139fb565b925050604084013567ffffffffffffffff811115613def57613dee6130b8565b5b613dfb86828701613b33565b9150509250925092565b600067ffffffffffffffff821115613e2057613e1f6138fe565b5b602082029050602081019050919050565b600080fd5b600060608284031215613e4c57613e4b613afd565b5b613e56606061395e565b90506000613e66848285016130de565b600083015250602082013567ffffffffffffffff811115613e8a57613e89613b02565b5b613e96848285016139fb565b602083015250604082013567ffffffffffffffff811115613eba57613eb9613b02565b5b613ec6848285016139fb565b60408301525092915050565b6000613ee5613ee084613e05565b61395e565b90508083825260208201905060208402830185811115613f0857613f07613e31565b5b835b81811015613f4f57803567ffffffffffffffff811115613f2d57613f2c6138f4565b5b808601613f3a8982613e36565b85526020850194505050602081019050613f0a565b5050509392505050565b600082601f830112613f6e57613f6d6138f4565b5b8135613f7e848260208601613ed2565b91505092915050565b600080600060608486031215613fa057613f9f6130b3565b5b600084013567ffffffffffffffff811115613fbe57613fbd6130b8565b5b613fca86828701613f59565b935050602084013567ffffffffffffffff811115613feb57613fea6130b8565b5b613ff7868287016139fb565b925050604084013567ffffffffffffffff811115614018576140176130b8565b5b61402486828701613b33565b9150509250925092565b7f4e487b7100000000000000000000000000000000000000000000000000000000600052603260045260246000fd5b7f4e487b7100000000000000000000000000000000000000000000000000000000600052602260045260246000fd5b600060028204905060018216806140a457607f821691505b602082108114156140b8576140b761405d565b5b50919050565b7f4e487b7100000000000000000000000000000000000000000000000000000000600052601160045260246000fd5b60006140f8826130bd565b91507fffffffffffffffffffffffffffffffffffffffffffffffffffffffffffffffff82141561412b5761412a6140be565b5b600182019050919050565b6000614141826130bd565b915061414c836130bd565b9250827fffffffffffffffffffffffffffffffffffffffffffffffffffffffffffffffff03821115614181576141806140be565b5b828201905092915050565b600081905092915050565b60008190508160005260206000209050919050565b600081546141b98161408c565b6141c3818661418c565b945060018216600081146141de57600181146141ef57614222565b60ff19831686528186019350614222565b6141f885614197565b60005b8381101561421a578154818901526001820191506020810190506141fb565b838801955050505b50505092915050565b600061423782846141ac565b915081905092915050565b600061424d82612e54565b614257818561418c565b9350614267818560208601612e70565b80840191505092915050565b600061427f8284614242565b915081905092915050565b7f557365726e616d6520616c72656164792065786973742c2074727920616e6f7460008201527f686572206f6e6500000000000000000000000000000000000000000000000000602082015250565b60006142e660278361303d565b91506142f18261428a565b604082019050919050565b60006020820190508181036000830152614315816142d9565b9050919050565b7f596f7520616c7265616479206861766520616e206163636f756e740000000000600082015250565b6000614352601b8361303d565b915061435d8261431c565b602082019050919050565b6000602082019050818103600083015261438181614345565b9050919050565b61439181612f0d565b82525050565b600060608201905081810360008301526143b1818661304e565b905081810360208301526143c5818561304e565b90506143d46040830184614388565b949350505050565b60008160601b9050919050565b60006143f4826143dc565b9050919050565b6000614406826143e9565b9050919050565b61441e61441982612f0d565b6143fb565b82525050565b6000614430828461440d565b60148201915081905092915050565b614448816130bd565b82525050565b6000604082019050614463600083018561443f565b818103602083015261447581846137d3565b90509392505050565b6000608082019050614493600083018761443f565b6144a0602083018661443f565b81810360408301526144b2818561304e565b905081810360608301526144c681846137d3565b905095945050505050565b7f6f6e6c792063757272656e74206f776e65722063616e20757064617465206f7760008201527f6e65720000000000000000000000000000000000000000000000000000000000602082015250565b600061452d60238361303d565b9150614538826144d1565b604082019050919050565b6000602082019050818103600083015261455c81614520565b9050919050565b6000606082019050614578600083018661443f565b818103602083015261458a818561304e565b9050818103604083015261459e81846137d3565b905094935050505056fea2646970667358221220f5cf7e7e3224459a1014c29f586c9fa8539928ad33bef3ff68b607d91b5fbd8664736f6c634300080a0033",
  "immutableReferences": {},
  "source": "// SPDX-License-Identifier: UNLISCENSED\r\npragma experimental ABIEncoderV2;\r\npragma solidity ^0.8.10;\r\n\r\ncontract SocialNetwork {\r\n    \r\n    string public name;\r\n    uint256 private postCount = 0;\r\n    uint256 private likesCount = 0;\r\n    uint256 private commentCount = 0;\r\n    uint256 private filesCount = 0;\r\n    address[]  usersAddress;\r\n\r\n    mapping(uint256 => Post) private posts;\r\n    mapping(address => User) private users;\r\n    mapping(uint256 => Like) private likes;\r\n    mapping(uint256 => Comment) private comments;\r\n    mapping(uint256 => File[]) private files;\r\n\r\n\r\n    struct User {\r\n        string image;\r\n        string username;\r\n        address payable author;\r\n    }\r\n\r\n    struct Comment {\r\n        User user;\r\n        string comment;\r\n        uint256 postId;\r\n        uint256 id;\r\n    }\r\n    struct AllPostInfo {\r\n        Post post;\r\n        Comment[] comments;\r\n        Like[] likes;\r\n        File[] files;\r\n    }\r\n    struct File {\r\n        uint256 postId;\r\n        string hash;\r\n        string fileType;\r\n    }\r\n    struct Post {\r\n        uint256 id;\r\n        string description;\r\n        User author;\r\n    }\r\n    struct Like {\r\n        uint256 postId;\r\n        User user;\r\n    }\r\n\r\n    event UserCreated(\r\n        string hash,\r\n        string username,\r\n        address payable author\r\n    );\r\n    event UserUpdate(\r\n        string hash,\r\n        string username,\r\n        address payable author\r\n    );\r\n\r\n    event PostCreated(\r\n        uint256 id,\r\n        string description,\r\n        User author\r\n    );\r\n\r\n    event PostCommented(\r\n        uint256 id,\r\n        uint256 postId,\r\n        string comment,\r\n        User user\r\n    );\r\n    event PostLiked(\r\n        uint256 imageId,\r\n        User user\r\n    );\r\n    event PostUnLiked(\r\n        uint256 imageId,\r\n        User user\r\n    );\r\n    constructor() {\r\n        name = \"SocialNetwork\";\r\n    }\r\n    //Handling users\r\n    function createUser(\r\n        string memory _username,\r\n        string memory _profileImg,\r\n        address _account\r\n    ) public {\r\n        for (uint i = 0; i < usersAddress.length; i++) {\r\n             require(keccak256(abi.encodePacked(_username)) != keccak256(abi.encodePacked(users[usersAddress[i]].username)), \"Username already exist, try another one\");\r\n             require(_account != users[usersAddress[i]].author, \"You already have an account\");\r\n        }\r\n        users[_account] = User(_profileImg, _username, payable(_account));\r\n        usersAddress.push(_account);\r\n        emit UserCreated(_profileImg, _username, payable(_account));\r\n    }\r\n    function userUpdate(\r\n        string memory _profileImgHash,\r\n        string memory _username,\r\n        User memory author\r\n    ) public {\r\n        for (uint i = 0; i < usersAddress.length; i++) {\r\n            require(keccak256(abi.encodePacked(_username)) != keccak256(abi.encodePacked(users[usersAddress[i]].username)), \"Username already exist, try another one\");\r\n        }\r\n        users[author.author] = User(_profileImgHash, _username, author.author);\r\n        emit UserUpdate(_profileImgHash, _username, author.author);\r\n    }\r\n    function deleteUser(address _account) public {\r\n        require(msg.sender != address(0));\r\n        require(_account != address(0));\r\n        delete users[_account];\r\n        for (uint i = 0; i < usersAddress.length; i++){\r\n            if (usersAddress[i] == _account){\r\n                delete usersAddress[i];\r\n                break;\r\n            }\r\n        }\r\n    }\r\n    function getUsers() public view returns (User[] memory) {\r\n        User[] memory userList = new User[](usersAddress.length);\r\n        for (uint i = 0; i < usersAddress.length; i++) {\r\n            userList[i] = users[usersAddress[i]];\r\n        }\r\n        return userList;\r\n    }\r\n    function getUser(address userAccount) public view returns (User memory) {\r\n        return users[userAccount];\r\n    }\r\n    function getUserByUserName(string memory _username) public view returns (User memory) {\r\n        for (uint i = 0; i < usersAddress.length; i++){\r\n            if (keccak256(abi.encodePacked(_username)) == keccak256(abi.encodePacked(users[usersAddress[i]].username))) {\r\n                return users[usersAddress[i]];\r\n            }\r\n        }\r\n        return User('','', payable(address(0)));\r\n    }\r\n\r\n    //Handling posts\r\n    function createPost(\r\n        File[] memory _files,\r\n        string memory _description,\r\n        User memory _user\r\n    ) public payable{\r\n        // Make sure image description exists\r\n        require(bytes(_description).length > 0);\r\n        // Make sure uploader address exists\r\n        require(msg.sender != address(0));\r\n        require(payable(msg.sender) == _user.author, \"only current owner can update owner\");\r\n        // Increment image id\r\n        postCount++;\r\n        // Add Image to the contract\r\n        for (uint i = 0; i < _files.length; i ++){\r\n            addFileToPost(_files[i], postCount);\r\n        }\r\n        posts[postCount] = Post(postCount, _description, _user);\r\n        // Trigger an event\r\n        emit PostCreated(\r\n            postCount,\r\n            _description,\r\n            _user\r\n        );\r\n    }\r\n    function addFileToPost(File memory _files, uint256 _postId) private {\r\n        require(bytes(_files.hash).length > 0);\r\n        require(bytes(_files.fileType). length > 0);\r\n        filesCount++;\r\n        _files.postId = _postId;\r\n        \r\n        files[_postId].push(_files);\r\n    }\r\n    function deletePost(uint256 id) public {\r\n        delete posts[id];\r\n    }\r\n    function commentPost(uint256 _id, string memory _comment, User memory user)\r\n        public\r\n        payable\r\n    {\r\n        // Make sure the id is valid\r\n        require(_id > 0 && _id <= postCount);\r\n       //Adding new comment\r\n        commentCount++;\r\n        comments[commentCount] = Comment(user, _comment, _id, commentCount);\r\n        emit PostCommented(\r\n            commentCount,\r\n            _id,\r\n            _comment,\r\n            user\r\n        );\r\n    }\r\n    function deleteComment(uint256 id) public {\r\n        delete comments[id];\r\n    }\r\n    function getPostComments(uint256 postId) public view returns (Comment[] memory) {\r\n        require(postId > 0 && postId <= postCount);\r\n        Comment[] memory _cList = new Comment[](commentCount);\r\n        for (uint i = 0; i < commentCount; i++){\r\n            if (postId == comments[i+1].postId){\r\n                _cList[i]= comments[i+1];\r\n            }\r\n        }\r\n        return _cList;\r\n    }\r\n    function setLike(uint256 postId, User memory user) public payable {\r\n        require(postId > 0 && postId <= postCount);\r\n        Like[] memory _lList = getPostLikes(postId);\r\n        for (uint i = 0; i < _lList.length; i++){\r\n            require(keccak256(abi.encodePacked(user.author)) != keccak256(abi.encodePacked(_lList[i].user.author)));\r\n        }\r\n        likesCount++;\r\n        likes[likesCount] = Like(postId, user);\r\n        emit PostLiked(postId, user);\r\n    }\r\n    function unLike(uint256 postId, User memory user) public {\r\n        require(postId > 0 && postId <= postCount);\r\n        for (uint i = 0; i < likesCount; i++){\r\n            if (likes[i+1].postId == postId && keccak256(abi.encodePacked(user.author)) == keccak256(abi.encodePacked(likes[i+1].user.author)) ) {\r\n                delete likes[i+1];\r\n            }\r\n        }\r\n        emit PostUnLiked(postId, user);\r\n    }\r\n\r\n    function getPosts() public  view returns (AllPostInfo[] memory) {\r\n        AllPostInfo[] memory allPost = new AllPostInfo[](postCount);\r\n\r\n        for (uint i = 0; i < postCount; i++) {\r\n            allPost[i].post = posts[i+1];\r\n            allPost[i].comments = getPostComments(i+1);\r\n            allPost[i].likes = getPostLikes(i+1);\r\n            allPost[i].files = getPostFiles(i+1);\r\n        }\r\n        return allPost;\r\n    }\r\n    function getPost(uint256 postId) public view returns (AllPostInfo memory) {\r\n        AllPostInfo memory _post;\r\n        _post.post = posts[postId];\r\n        _post.comments = getPostComments(postId);\r\n        _post.likes = getPostLikes(postId);\r\n        _post.files = getPostFiles(postId);\r\n        return _post;\r\n    }\r\n    function getPostLikes(uint256 postId) public view returns (Like[] memory) {\r\n        Like[] memory postLikes = new Like[](likesCount);\r\n        for (uint i = 0; i < likesCount; i++){\r\n            if (postId == likes[i+1].postId){\r\n                postLikes[i]= likes[i+1];\r\n            }\r\n        }\r\n        return postLikes;\r\n    }\r\n    function getPostFiles(uint256 _postId) public view returns (File[] memory){\r\n        File[] memory postFiles = new File[](filesCount);\r\n            if (_postId == files[_postId][0].postId){\r\n                    postFiles = (files[_postId]);            \r\n        }\r\n        return postFiles;\r\n    }\r\n}\r\n",
  "sourcePath": "C:\\Users\\Franklin Lucena\\Documents\\react_project\\decentragram\\src\\contracts\\SocialNetwork.sol",
  "compiler": {
    "name": "solc",
    "version": "0.8.10+commit.fc410830.Emscripten.clang"
  },
  "schemaVersion": "3.4.3",
  "updatedAt": "2021-12-03T16:10:26.621Z",
  "networkType": "ethereum",
  "devdoc": {
    "kind": "dev",
    "methods": {},
    "version": 1
  },
  "userdoc": {
    "kind": "user",
    "methods": {},
    "version": 1
  }
}